{
    "_format": "hh-sol-artifact-1",
    "contractName": "RIPNFT",
    "sourceName": "contracts/RIPNFT.sol",
    "abi": [
        {
            "inputs": [
                {
                    "internalType": "address",
                    "name": "_daiTokenAddress",
                    "type": "address"
                },
                {
                    "internalType": "string",
                    "name": "uri",
                    "type": "string"
                }
            ],
            "stateMutability": "nonpayable",
            "type": "constructor"
        },
        {
            "inputs": [
                {
                    "internalType": "address",
                    "name": "sender",
                    "type": "address"
                },
                {
                    "internalType": "uint256",
                    "name": "balance",
                    "type": "uint256"
                },
                {
                    "internalType": "uint256",
                    "name": "needed",
                    "type": "uint256"
                },
                {
                    "internalType": "uint256",
                    "name": "tokenId",
                    "type": "uint256"
                }
            ],
            "name": "ERC1155InsufficientBalance",
            "type": "error"
        },
        {
            "inputs": [
                {
                    "internalType": "address",
                    "name": "approver",
                    "type": "address"
                }
            ],
            "name": "ERC1155InvalidApprover",
            "type": "error"
        },
        {
            "inputs": [
                {
                    "internalType": "uint256",
                    "name": "idsLength",
                    "type": "uint256"
                },
                {
                    "internalType": "uint256",
                    "name": "valuesLength",
                    "type": "uint256"
                }
            ],
            "name": "ERC1155InvalidArrayLength",
            "type": "error"
        },
        {
            "inputs": [
                {
                    "internalType": "address",
                    "name": "operator",
                    "type": "address"
                }
            ],
            "name": "ERC1155InvalidOperator",
            "type": "error"
        },
        {
            "inputs": [
                {
                    "internalType": "address",
                    "name": "receiver",
                    "type": "address"
                }
            ],
            "name": "ERC1155InvalidReceiver",
            "type": "error"
        },
        {
            "inputs": [
                {
                    "internalType": "address",
                    "name": "sender",
                    "type": "address"
                }
            ],
            "name": "ERC1155InvalidSender",
            "type": "error"
        },
        {
            "inputs": [
                {
                    "internalType": "address",
                    "name": "operator",
                    "type": "address"
                },
                {
                    "internalType": "address",
                    "name": "owner",
                    "type": "address"
                }
            ],
            "name": "ERC1155MissingApprovalForAll",
            "type": "error"
        },
        {
            "inputs": [
                {
                    "internalType": "address",
                    "name": "owner",
                    "type": "address"
                }
            ],
            "name": "OwnableInvalidOwner",
            "type": "error"
        },
        {
            "inputs": [
                {
                    "internalType": "address",
                    "name": "account",
                    "type": "address"
                }
            ],
            "name": "OwnableUnauthorizedAccount",
            "type": "error"
        },
        {
            "anonymous": false,
            "inputs": [
                {
                    "indexed": true,
                    "internalType": "address",
                    "name": "account",
                    "type": "address"
                },
                {
                    "indexed": true,
                    "internalType": "address",
                    "name": "operator",
                    "type": "address"
                },
                {
                    "indexed": false,
                    "internalType": "bool",
                    "name": "approved",
                    "type": "bool"
                }
            ],
            "name": "ApprovalForAll",
            "type": "event"
        },
        {
            "anonymous": false,
            "inputs": [
                {
                    "indexed": false,
                    "internalType": "address",
                    "name": "payer",
                    "type": "address"
                },
                {
                    "indexed": false,
                    "internalType": "uint256",
                    "name": "amount",
                    "type": "uint256"
                }
            ],
            "name": "BuyFCoin",
            "type": "event"
        },
        {
            "anonymous": false,
            "inputs": [
                {
                    "indexed": true,
                    "internalType": "uint256",
                    "name": "ID",
                    "type": "uint256"
                },
                {
                    "indexed": true,
                    "internalType": "address",
                    "name": "creator",
                    "type": "address"
                },
                {
                    "indexed": false,
                    "internalType": "uint256",
                    "name": "amount",
                    "type": "uint256"
                }
            ],
            "name": "EventEnded",
            "type": "event"
        },
        {
            "anonymous": false,
            "inputs": [
                {
                    "indexed": true,
                    "internalType": "uint256",
                    "name": "ID",
                    "type": "uint256"
                },
                {
                    "indexed": true,
                    "internalType": "address",
                    "name": "creator",
                    "type": "address"
                },
                {
                    "indexed": false,
                    "internalType": "uint256",
                    "name": "duration",
                    "type": "uint256"
                }
            ],
            "name": "EventStarted",
            "type": "event"
        },
        {
            "anonymous": false,
            "inputs": [
                {
                    "indexed": true,
                    "internalType": "address",
                    "name": "previousOwner",
                    "type": "address"
                },
                {
                    "indexed": true,
                    "internalType": "address",
                    "name": "newOwner",
                    "type": "address"
                }
            ],
            "name": "OwnershipTransferred",
            "type": "event"
        },
        {
            "anonymous": false,
            "inputs": [
                {
                    "indexed": true,
                    "internalType": "address",
                    "name": "operator",
                    "type": "address"
                },
                {
                    "indexed": true,
                    "internalType": "address",
                    "name": "from",
                    "type": "address"
                },
                {
                    "indexed": true,
                    "internalType": "address",
                    "name": "to",
                    "type": "address"
                },
                {
                    "indexed": false,
                    "internalType": "uint256[]",
                    "name": "ids",
                    "type": "uint256[]"
                },
                {
                    "indexed": false,
                    "internalType": "uint256[]",
                    "name": "values",
                    "type": "uint256[]"
                }
            ],
            "name": "TransferBatch",
            "type": "event"
        },
        {
            "anonymous": false,
            "inputs": [
                {
                    "indexed": true,
                    "internalType": "address",
                    "name": "operator",
                    "type": "address"
                },
                {
                    "indexed": true,
                    "internalType": "address",
                    "name": "from",
                    "type": "address"
                },
                {
                    "indexed": true,
                    "internalType": "address",
                    "name": "to",
                    "type": "address"
                },
                {
                    "indexed": false,
                    "internalType": "uint256",
                    "name": "id",
                    "type": "uint256"
                },
                {
                    "indexed": false,
                    "internalType": "uint256",
                    "name": "value",
                    "type": "uint256"
                }
            ],
            "name": "TransferSingle",
            "type": "event"
        },
        {
            "anonymous": false,
            "inputs": [
                {
                    "indexed": false,
                    "internalType": "string",
                    "name": "value",
                    "type": "string"
                },
                {
                    "indexed": true,
                    "internalType": "uint256",
                    "name": "id",
                    "type": "uint256"
                }
            ],
            "name": "URI",
            "type": "event"
        },
        {
            "inputs": [
                {
                    "internalType": "uint256",
                    "name": "",
                    "type": "uint256"
                }
            ],
            "name": "_tokenURIs",
            "outputs": [
                {
                    "internalType": "string",
                    "name": "",
                    "type": "string"
                }
            ],
            "stateMutability": "view",
            "type": "function"
        },
        {
            "inputs": [],
            "name": "adminBalance",
            "outputs": [
                {
                    "internalType": "uint256",
                    "name": "",
                    "type": "uint256"
                }
            ],
            "stateMutability": "view",
            "type": "function"
        },
        {
            "inputs": [
                {
                    "internalType": "address",
                    "name": "account",
                    "type": "address"
                },
                {
                    "internalType": "uint256",
                    "name": "id",
                    "type": "uint256"
                }
            ],
            "name": "balanceOf",
            "outputs": [
                {
                    "internalType": "uint256",
                    "name": "",
                    "type": "uint256"
                }
            ],
            "stateMutability": "view",
            "type": "function"
        },
        {
            "inputs": [
                {
                    "internalType": "address[]",
                    "name": "accounts",
                    "type": "address[]"
                },
                {
                    "internalType": "uint256[]",
                    "name": "ids",
                    "type": "uint256[]"
                }
            ],
            "name": "balanceOfBatch",
            "outputs": [
                {
                    "internalType": "uint256[]",
                    "name": "",
                    "type": "uint256[]"
                }
            ],
            "stateMutability": "view",
            "type": "function"
        },
        {
            "inputs": [
                {
                    "internalType": "address",
                    "name": "account",
                    "type": "address"
                },
                {
                    "internalType": "uint256",
                    "name": "id",
                    "type": "uint256"
                },
                {
                    "internalType": "uint256",
                    "name": "value",
                    "type": "uint256"
                }
            ],
            "name": "burn",
            "outputs": [],
            "stateMutability": "nonpayable",
            "type": "function"
        },
        {
            "inputs": [
                {
                    "internalType": "address",
                    "name": "account",
                    "type": "address"
                },
                {
                    "internalType": "uint256[]",
                    "name": "ids",
                    "type": "uint256[]"
                },
                {
                    "internalType": "uint256[]",
                    "name": "values",
                    "type": "uint256[]"
                }
            ],
            "name": "burnBatch",
            "outputs": [],
            "stateMutability": "nonpayable",
            "type": "function"
        },
        {
            "inputs": [],
            "name": "claimDAI",
            "outputs": [],
            "stateMutability": "nonpayable",
            "type": "function"
        },
        {
            "inputs": [],
            "name": "conversion",
            "outputs": [
                {
                    "internalType": "uint256",
                    "name": "",
                    "type": "uint256"
                }
            ],
            "stateMutability": "view",
            "type": "function"
        },
        {
            "inputs": [
                {
                    "internalType": "address",
                    "name": "",
                    "type": "address"
                }
            ],
            "name": "creatorCut",
            "outputs": [
                {
                    "internalType": "uint256",
                    "name": "",
                    "type": "uint256"
                }
            ],
            "stateMutability": "view",
            "type": "function"
        },
        {
            "inputs": [],
            "name": "daiTokenAddress",
            "outputs": [
                {
                    "internalType": "address",
                    "name": "",
                    "type": "address"
                }
            ],
            "stateMutability": "view",
            "type": "function"
        },
        {
            "inputs": [
                {
                    "internalType": "uint256",
                    "name": "_eventID",
                    "type": "uint256"
                }
            ],
            "name": "endEvent",
            "outputs": [],
            "stateMutability": "nonpayable",
            "type": "function"
        },
        {
            "inputs": [],
            "name": "eventCounter",
            "outputs": [
                {
                    "internalType": "uint256",
                    "name": "",
                    "type": "uint256"
                }
            ],
            "stateMutability": "view",
            "type": "function"
        },
        {
            "inputs": [
                {
                    "internalType": "uint256",
                    "name": "",
                    "type": "uint256"
                }
            ],
            "name": "events",
            "outputs": [
                {
                    "internalType": "string",
                    "name": "Name",
                    "type": "string"
                },
                {
                    "internalType": "address",
                    "name": "Creator",
                    "type": "address"
                },
                {
                    "internalType": "uint256",
                    "name": "Duration",
                    "type": "uint256"
                },
                {
                    "internalType": "uint256",
                    "name": "StartTime",
                    "type": "uint256"
                },
                {
                    "internalType": "bool",
                    "name": "HasEnded",
                    "type": "bool"
                },
                {
                    "internalType": "string",
                    "name": "NFTURI",
                    "type": "string"
                },
                {
                    "internalType": "uint256",
                    "name": "FCoins",
                    "type": "uint256"
                },
                {
                    "internalType": "uint256",
                    "name": "MinimumTip",
                    "type": "uint256"
                }
            ],
            "stateMutability": "view",
            "type": "function"
        },
        {
            "inputs": [
                {
                    "internalType": "uint256",
                    "name": "id",
                    "type": "uint256"
                }
            ],
            "name": "exists",
            "outputs": [
                {
                    "internalType": "bool",
                    "name": "",
                    "type": "bool"
                }
            ],
            "stateMutability": "view",
            "type": "function"
        },
        {
            "inputs": [
                {
                    "internalType": "uint256",
                    "name": "_amount",
                    "type": "uint256"
                }
            ],
            "name": "getFcoins",
            "outputs": [],
            "stateMutability": "nonpayable",
            "type": "function"
        },
        {
            "inputs": [
                {
                    "internalType": "uint256",
                    "name": "",
                    "type": "uint256"
                },
                {
                    "internalType": "address",
                    "name": "",
                    "type": "address"
                }
            ],
            "name": "hasMinted",
            "outputs": [
                {
                    "internalType": "bool",
                    "name": "",
                    "type": "bool"
                }
            ],
            "stateMutability": "view",
            "type": "function"
        },
        {
            "inputs": [
                {
                    "internalType": "address",
                    "name": "account",
                    "type": "address"
                },
                {
                    "internalType": "address",
                    "name": "operator",
                    "type": "address"
                }
            ],
            "name": "isApprovedForAll",
            "outputs": [
                {
                    "internalType": "bool",
                    "name": "",
                    "type": "bool"
                }
            ],
            "stateMutability": "view",
            "type": "function"
        },
        {
            "inputs": [
                {
                    "internalType": "address",
                    "name": "to",
                    "type": "address"
                },
                {
                    "internalType": "uint256[]",
                    "name": "ids",
                    "type": "uint256[]"
                },
                {
                    "internalType": "uint256[]",
                    "name": "amounts",
                    "type": "uint256[]"
                },
                {
                    "internalType": "bytes",
                    "name": "data",
                    "type": "bytes"
                }
            ],
            "name": "mintBatch",
            "outputs": [],
            "stateMutability": "nonpayable",
            "type": "function"
        },
        {
            "inputs": [
                {
                    "internalType": "uint256",
                    "name": "_eventID",
                    "type": "uint256"
                }
            ],
            "name": "mintNFT",
            "outputs": [],
            "stateMutability": "nonpayable",
            "type": "function"
        },
        {
            "inputs": [
                {
                    "internalType": "address",
                    "name": "operator",
                    "type": "address"
                },
                {
                    "internalType": "address",
                    "name": "from",
                    "type": "address"
                },
                {
                    "internalType": "uint256[]",
                    "name": "ids",
                    "type": "uint256[]"
                },
                {
                    "internalType": "uint256[]",
                    "name": "values",
                    "type": "uint256[]"
                },
                {
                    "internalType": "bytes",
                    "name": "data",
                    "type": "bytes"
                }
            ],
            "name": "onERC1155BatchReceived",
            "outputs": [
                {
                    "internalType": "bytes4",
                    "name": "",
                    "type": "bytes4"
                }
            ],
            "stateMutability": "nonpayable",
            "type": "function"
        },
        {
            "inputs": [
                {
                    "internalType": "address",
                    "name": "operator",
                    "type": "address"
                },
                {
                    "internalType": "address",
                    "name": "from",
                    "type": "address"
                },
                {
                    "internalType": "uint256",
                    "name": "id",
                    "type": "uint256"
                },
                {
                    "internalType": "uint256",
                    "name": "value",
                    "type": "uint256"
                },
                {
                    "internalType": "bytes",
                    "name": "data",
                    "type": "bytes"
                }
            ],
            "name": "onERC1155Received",
            "outputs": [
                {
                    "internalType": "bytes4",
                    "name": "",
                    "type": "bytes4"
                }
            ],
            "stateMutability": "nonpayable",
            "type": "function"
        },
        {
            "inputs": [],
            "name": "owner",
            "outputs": [
                {
                    "internalType": "address",
                    "name": "",
                    "type": "address"
                }
            ],
            "stateMutability": "view",
            "type": "function"
        },
        {
            "inputs": [
                {
                    "internalType": "uint256",
                    "name": "_eventID",
                    "type": "uint256"
                },
                {
                    "internalType": "uint256",
                    "name": "_amount",
                    "type": "uint256"
                }
            ],
            "name": "payRespects",
            "outputs": [],
            "stateMutability": "nonpayable",
            "type": "function"
        },
        {
            "inputs": [],
            "name": "renounceOwnership",
            "outputs": [],
            "stateMutability": "nonpayable",
            "type": "function"
        },
        {
            "inputs": [
                {
                    "internalType": "address",
                    "name": "from",
                    "type": "address"
                },
                {
                    "internalType": "address",
                    "name": "to",
                    "type": "address"
                },
                {
                    "internalType": "uint256[]",
                    "name": "ids",
                    "type": "uint256[]"
                },
                {
                    "internalType": "uint256[]",
                    "name": "values",
                    "type": "uint256[]"
                },
                {
                    "internalType": "bytes",
                    "name": "data",
                    "type": "bytes"
                }
            ],
            "name": "safeBatchTransferFrom",
            "outputs": [],
            "stateMutability": "nonpayable",
            "type": "function"
        },
        {
            "inputs": [
                {
                    "internalType": "address",
                    "name": "from",
                    "type": "address"
                },
                {
                    "internalType": "address",
                    "name": "to",
                    "type": "address"
                },
                {
                    "internalType": "uint256",
                    "name": "id",
                    "type": "uint256"
                },
                {
                    "internalType": "uint256",
                    "name": "value",
                    "type": "uint256"
                },
                {
                    "internalType": "bytes",
                    "name": "data",
                    "type": "bytes"
                }
            ],
            "name": "safeTransferFrom",
            "outputs": [],
            "stateMutability": "nonpayable",
            "type": "function"
        },
        {
            "inputs": [
                {
                    "internalType": "address",
                    "name": "operator",
                    "type": "address"
                },
                {
                    "internalType": "bool",
                    "name": "approved",
                    "type": "bool"
                }
            ],
            "name": "setApprovalForAll",
            "outputs": [],
            "stateMutability": "nonpayable",
            "type": "function"
        },
        {
            "inputs": [
                {
                    "internalType": "string",
                    "name": "newuri",
                    "type": "string"
                }
            ],
            "name": "setURI",
            "outputs": [],
            "stateMutability": "nonpayable",
            "type": "function"
        },
        {
            "inputs": [
                {
                    "internalType": "string",
                    "name": "_Name",
                    "type": "string"
                },
                {
                    "internalType": "string",
                    "name": "_NFTURI",
                    "type": "string"
                },
                {
                    "internalType": "uint256",
                    "name": "_minutes",
                    "type": "uint256"
                },
                {
                    "internalType": "uint256",
                    "name": "_MinimumTip",
                    "type": "uint256"
                }
            ],
            "name": "startEvent",
            "outputs": [],
            "stateMutability": "nonpayable",
            "type": "function"
        },
        {
            "inputs": [
                {
                    "internalType": "bytes4",
                    "name": "interfaceId",
                    "type": "bytes4"
                }
            ],
            "name": "supportsInterface",
            "outputs": [
                {
                    "internalType": "bool",
                    "name": "",
                    "type": "bool"
                }
            ],
            "stateMutability": "view",
            "type": "function"
        },
        {
            "inputs": [],
            "name": "takerofits",
            "outputs": [],
            "stateMutability": "nonpayable",
            "type": "function"
        },
        {
            "inputs": [],
            "name": "totalSupply",
            "outputs": [
                {
                    "internalType": "uint256",
                    "name": "",
                    "type": "uint256"
                }
            ],
            "stateMutability": "view",
            "type": "function"
        },
        {
            "inputs": [
                {
                    "internalType": "uint256",
                    "name": "id",
                    "type": "uint256"
                }
            ],
            "name": "totalSupply",
            "outputs": [
                {
                    "internalType": "uint256",
                    "name": "",
                    "type": "uint256"
                }
            ],
            "stateMutability": "view",
            "type": "function"
        },
        {
            "inputs": [
                {
                    "internalType": "address",
                    "name": "newOwner",
                    "type": "address"
                }
            ],
            "name": "transferOwnership",
            "outputs": [],
            "stateMutability": "nonpayable",
            "type": "function"
        },
        {
            "inputs": [
                {
                    "internalType": "uint256",
                    "name": "_eventID",
                    "type": "uint256"
                }
            ],
            "name": "uri",
            "outputs": [
                {
                    "internalType": "string",
                    "name": "",
                    "type": "string"
                }
            ],
            "stateMutability": "view",
            "type": "function"
        }
    ],
    "bytecode": "0x6080604052600960009054906101000a900473ffffffffffffffffffffffffffffffffffffffff16600660006101000a81548173ffffffffffffffffffffffffffffffffffffffff021916908373ffffffffffffffffffffffffffffffffffffffff16021790555060016008556001600a553480156200007e57600080fd5b5060405162005aeb38038062005aeb8339818101604052810190620000a491906200045b565b3381620000b7816200018860201b60201c565b50600073ffffffffffffffffffffffffffffffffffffffff168173ffffffffffffffffffffffffffffffffffffffff16036200012d5760006040517f1e4fbdf7000000000000000000000000000000000000000000000000000000008152600401620001249190620004d2565b60405180910390fd5b6200013e816200019d60201b60201c565b5081600960006101000a81548173ffffffffffffffffffffffffffffffffffffffff021916908373ffffffffffffffffffffffffffffffffffffffff160217905550505062000821565b80600290816200019991906200073a565b5050565b6000600360009054906101000a900473ffffffffffffffffffffffffffffffffffffffff16905081600360006101000a81548173ffffffffffffffffffffffffffffffffffffffff021916908373ffffffffffffffffffffffffffffffffffffffff1602179055508173ffffffffffffffffffffffffffffffffffffffff168173ffffffffffffffffffffffffffffffffffffffff167f8be0079c531659141344cd1fd0a4f28419497f9722a3daafe3b4186f6b6457e060405160405180910390a35050565b6000604051905090565b600080fd5b600080fd5b600073ffffffffffffffffffffffffffffffffffffffff82169050919050565b6000620002a48262000277565b9050919050565b620002b68162000297565b8114620002c257600080fd5b50565b600081519050620002d681620002ab565b92915050565b600080fd5b600080fd5b6000601f19601f8301169050919050565b7f4e487b7100000000000000000000000000000000000000000000000000000000600052604160045260246000fd5b6200033182620002e6565b810181811067ffffffffffffffff82111715620003535762000352620002f7565b5b80604052505050565b60006200036862000263565b905062000376828262000326565b919050565b600067ffffffffffffffff821115620003995762000398620002f7565b5b620003a482620002e6565b9050602081019050919050565b60005b83811015620003d1578082015181840152602081019050620003b4565b60008484015250505050565b6000620003f4620003ee846200037b565b6200035c565b905082815260208101848484011115620004135762000412620002e1565b5b62000420848285620003b1565b509392505050565b600082601f83011262000440576200043f620002dc565b5b815162000452848260208601620003dd565b91505092915050565b600080604083850312156200047557620004746200026d565b5b60006200048585828601620002c5565b925050602083015167ffffffffffffffff811115620004a957620004a862000272565b5b620004b78582860162000428565b9150509250929050565b620004cc8162000297565b82525050565b6000602082019050620004e96000830184620004c1565b92915050565b600081519050919050565b7f4e487b7100000000000000000000000000000000000000000000000000000000600052602260045260246000fd5b600060028204905060018216806200054257607f821691505b602082108103620005585762000557620004fa565b5b50919050565b60008190508160005260206000209050919050565b60006020601f8301049050919050565b600082821b905092915050565b600060088302620005c27fffffffffffffffffffffffffffffffffffffffffffffffffffffffffffffffff8262000583565b620005ce868362000583565b95508019841693508086168417925050509392505050565b6000819050919050565b6000819050919050565b60006200061b620006156200060f84620005e6565b620005f0565b620005e6565b9050919050565b6000819050919050565b6200063783620005fa565b6200064f620006468262000622565b84845462000590565b825550505050565b600090565b6200066662000657565b620006738184846200062c565b505050565b5b818110156200069b576200068f6000826200065c565b60018101905062000679565b5050565b601f821115620006ea57620006b4816200055e565b620006bf8462000573565b81016020851015620006cf578190505b620006e7620006de8562000573565b83018262000678565b50505b505050565b600082821c905092915050565b60006200070f60001984600802620006ef565b1980831691505092915050565b60006200072a8383620006fc565b9150826002028217905092915050565b6200074582620004ef565b67ffffffffffffffff811115620007615762000760620002f7565b5b6200076d825462000529565b6200077a8282856200069f565b600060209050601f831160018114620007b257600084156200079d578287015190505b620007a985826200071c565b86555062000819565b601f198416620007c2866200055e565b60005b82811015620007ec57848901518255600182019150602085019450602081019050620007c5565b868310156200080c578489015162000808601f891682620006fc565b8355505b6001600288020188555050505b505050505050565b6152ba80620008316000396000f3fe608060405234801561001057600080fd5b50600436106102105760003560e01c80634f558e7911610125578063a316a595116100ad578063e985e9c51161007c578063e985e9c514610616578063f23a6e6114610646578063f242432a14610676578063f2fde38b14610692578063f5298aca146106ae57610210565b8063a316a5951461057e578063b704a5c51461059a578063bc197c81146105b6578063bd85b039146105e657610210565b80638da5cb5b116100f45780638da5cb5b146104ec578063926427441461050a5780639311ca69146105265780639858befb14610544578063a22cb4651461056257610210565b80634f558e791461047857806352c55db9146104a85780636b20c454146104c6578063715018a6146104e257610210565b80631f7fdffa116101a8578063330a347b11610177578063330a347b146103d657806336a525a4146103f25780634504f8b31461042257806349be2cd91461042c5780634e1273f41461044857610210565b80631f7fdffa146103765780632b957ffb146103925780632eaee35e1461039c5780632eb2c2d6146103ba57610210565b80630b791430116101e45780630b791430146102c15780630bb78ec1146102f85780630e89341c1461032857806318160ddd1461035857610210565b8062fdd58e1461021557806301ffc9a71461024557806302fe5305146102755780630378073314610291575b600080fd5b61022f600480360381019061022a9190613470565b6106ca565b60405161023c91906134bf565b60405180910390f35b61025f600480360381019061025a9190613532565b610724565b60405161026c919061357a565b60405180910390f35b61028f600480360381019061028a91906136db565b610806565b005b6102ab60048036038101906102a69190613724565b61081a565b6040516102b8919061357a565b60405180910390f35b6102db60048036038101906102d69190613764565b610849565b6040516102ef98979695949392919061381f565b60405180910390f35b610312600480360381019061030d9190613764565b6109ce565b60405161031f91906138ab565b60405180910390f35b610342600480360381019061033d9190613764565b610a6e565b60405161034f91906138ab565b60405180910390f35b610360610b4c565b60405161036d91906134bf565b60405180910390f35b610390600480360381019061038b9190613a36565b610b56565b005b61039a610b70565b005b6103a4610cb4565b6040516103b19190613af1565b60405180910390f35b6103d460048036038101906103cf9190613b0c565b610cda565b005b6103f060048036038101906103eb9190613764565b610d82565b005b61040c60048036038101906104079190613bdb565b611129565b60405161041991906134bf565b60405180910390f35b61042a611141565b005b61044660048036038101906104419190613764565b611334565b005b610462600480360381019061045d9190613ccb565b611486565b60405161046f9190613e01565b60405180910390f35b610492600480360381019061048d9190613764565b611595565b60405161049f919061357a565b60405180910390f35b6104b06115a9565b6040516104bd91906134bf565b60405180910390f35b6104e060048036038101906104db9190613e23565b6115af565b005b6104ea61165b565b005b6104f461166f565b6040516105019190613af1565b60405180910390f35b610524600480360381019061051f9190613764565b611699565b005b61052e61195f565b60405161053b91906134bf565b60405180910390f35b61054c611965565b60405161055991906134bf565b60405180910390f35b61057c60048036038101906105779190613eda565b61196b565b005b61059860048036038101906105939190613f1a565b611981565b005b6105b460048036038101906105af9190613fb5565b611bc3565b005b6105d060048036038101906105cb9190614108565b611dff565b6040516105dd91906141f3565b60405180910390f35b61060060048036038101906105fb9190613764565b611e92565b60405161060d91906134bf565b60405180910390f35b610630600480360381019061062b919061420e565b611eaf565b60405161063d919061357a565b60405180910390f35b610660600480360381019061065b919061424e565b611f43565b60405161066d91906141f3565b60405180910390f35b610690600480360381019061068b91906142e8565b611f9b565b005b6106ac60048036038101906106a79190613bdb565b612043565b005b6106c860048036038101906106c3919061437f565b6120c9565b005b600080600083815260200190815260200160002060008473ffffffffffffffffffffffffffffffffffffffff1673ffffffffffffffffffffffffffffffffffffffff16815260200190815260200160002054905092915050565b60007fd9b67a26000000000000000000000000000000000000000000000000000000007bffffffffffffffffffffffffffffffffffffffffffffffffffffffff1916827bffffffffffffffffffffffffffffffffffffffffffffffffffffffff191614806107ef57507f0e89341c000000000000000000000000000000000000000000000000000000007bffffffffffffffffffffffffffffffffffffffffffffffffffffffff1916827bffffffffffffffffffffffffffffffffffffffffffffffffffffffff1916145b806107ff57506107fe82612175565b5b9050919050565b61080e6121df565b61081781612266565b50565b600e6020528160005260406000206020528060005260406000206000915091509054906101000a900460ff1681565b600d60205280600052604060002060009150905080600001805461086c90614401565b80601f016020809104026020016040519081016040528092919081815260200182805461089890614401565b80156108e55780601f106108ba576101008083540402835291602001916108e5565b820191906000526020600020905b8154815290600101906020018083116108c857829003601f168201915b5050505050908060010160009054906101000a900473ffffffffffffffffffffffffffffffffffffffff16908060020154908060030154908060040160009054906101000a900460ff169080600501805461093f90614401565b80601f016020809104026020016040519081016040528092919081815260200182805461096b90614401565b80156109b85780601f1061098d576101008083540402835291602001916109b8565b820191906000526020600020905b81548152906001019060200180831161099b57829003601f168201915b5050505050908060060154908060080154905088565b600b60205280600052604060002060009150905080546109ed90614401565b80601f0160208091040260200160405190810160405280929190818152602001828054610a1990614401565b8015610a665780601f10610a3b57610100808354040283529160200191610a66565b820191906000526020600020905b815481529060010190602001808311610a4957829003601f168201915b505050505081565b60606000600b60008481526020019081526020016000208054610a9090614401565b90501115610b3b57600b60008381526020019081526020016000208054610ab690614401565b80601f0160208091040260200160405190810160405280929190818152602001828054610ae290614401565b8015610b2f5780601f10610b0457610100808354040283529160200191610b2f565b820191906000526020600020905b815481529060010190602001808311610b1257829003601f168201915b50505050509050610b47565b610b4482612279565b90505b919050565b6000600554905090565b610b5e6121df565b610b6a8484848461230d565b50505050565b610b786121df565b600060075411610bbd576040517f08c379a0000000000000000000000000000000000000000000000000000000008152600401610bb49061447e565b60405180910390fd5b6000600754905060006007819055506000600960009054906101000a900473ffffffffffffffffffffffffffffffffffffffff1673ffffffffffffffffffffffffffffffffffffffff1663a9059cbb33846040518363ffffffff1660e01b8152600401610c2b92919061449e565b6020604051808303816000875af1158015610c4a573d6000803e3d6000fd5b505050506040513d601f19601f82011682018060405250810190610c6e91906144dc565b905080610cb0576040517f08c379a0000000000000000000000000000000000000000000000000000000008152600401610ca790614555565b60405180910390fd5b5050565b600960009054906101000a900473ffffffffffffffffffffffffffffffffffffffff1681565b6000610ce4612393565b90508073ffffffffffffffffffffffffffffffffffffffff168673ffffffffffffffffffffffffffffffffffffffff1614158015610d295750610d278682611eaf565b155b15610d6d5780866040517fe237d922000000000000000000000000000000000000000000000000000000008152600401610d64929190614575565b60405180910390fd5b610d7a868686868661239b565b505050505050565b603c600d600083815260200190815260200160002060020154610da591906145cd565b600d600083815260200190815260200160002060030154610dc6919061460f565b421015610e08576040517f08c379a0000000000000000000000000000000000000000000000000000000008152600401610dff9061468f565b60405180910390fd5b60001515600d600083815260200190815260200160002060040160009054906101000a900460ff16151514610e72576040517f08c379a0000000000000000000000000000000000000000000000000000000008152600401610e69906146fb565b60405180910390fd5b6001600d600083815260200190815260200160002060040160006101000a81548160ff021916908315150217905550600060646008546061600d600086815260200190815260200160002060060154610ecb91906145cd565b610ed5919061474a565b610edf919061474a565b90506000600854600d600085815260200190815260200160002060060154610f07919061474a565b90508181610f15919061477b565b60078190555081600c6000600d600087815260200190815260200160002060010160009054906101000a900473ffffffffffffffffffffffffffffffffffffffff1673ffffffffffffffffffffffffffffffffffffffff1673ffffffffffffffffffffffffffffffffffffffff16815260200190815260200160002054610f9c919061460f565b600c6000600d600087815260200190815260200160002060010160009054906101000a900473ffffffffffffffffffffffffffffffffffffffff1673ffffffffffffffffffffffffffffffffffffffff1673ffffffffffffffffffffffffffffffffffffffff16815260200190815260200160002081905550611037306000600d600087815260200190815260200160002060060154612493565b611089600d600085815260200190815260200160002060010160009054906101000a900473ffffffffffffffffffffffffffffffffffffffff168460016040518060200160405280600081525061253a565b600d600084815260200190815260200160002060010160009054906101000a900473ffffffffffffffffffffffffffffffffffffffff1673ffffffffffffffffffffffffffffffffffffffff16837fa0441962c292676f801248e4c11ee634330cd2cbcecc6a0b7f61fad55707d1e1600d60008781526020019081526020016000206006015460405161111c91906134bf565b60405180910390a3505050565b600c6020528060005260406000206000915090505481565b6000600c60003373ffffffffffffffffffffffffffffffffffffffff1673ffffffffffffffffffffffffffffffffffffffff16815260200190815260200160002054116111c3576040517f08c379a00000000000000000000000000000000000000000000000000000000081526004016111ba906147fb565b60405180910390fd5b6000600c60003373ffffffffffffffffffffffffffffffffffffffff1673ffffffffffffffffffffffffffffffffffffffff1681526020019081526020016000205490506000600c60003373ffffffffffffffffffffffffffffffffffffffff1673ffffffffffffffffffffffffffffffffffffffff168152602001908152602001600020819055506000600960009054906101000a900473ffffffffffffffffffffffffffffffffffffffff1673ffffffffffffffffffffffffffffffffffffffff1663a9059cbb33846040518363ffffffff1660e01b81526004016112ab92919061449e565b6020604051808303816000875af11580156112ca573d6000803e3d6000fd5b505050506040513d601f19601f820116820180604052508101906112ee91906144dc565b905080611330576040517f08c379a000000000000000000000000000000000000000000000000000000000815260040161132790614555565b60405180910390fd5b5050565b60006008548261134491906145cd565b90506000600960009054906101000a900473ffffffffffffffffffffffffffffffffffffffff1673ffffffffffffffffffffffffffffffffffffffff166323b872dd3330856040518463ffffffff1660e01b81526004016113a79392919061481b565b6020604051808303816000875af11580156113c6573d6000803e3d6000fd5b505050506040513d601f19601f820116820180604052508101906113ea91906144dc565b90508061142c576040517f08c379a00000000000000000000000000000000000000000000000000000000081526004016114239061489e565b60405180910390fd5b611448336000856040518060200160405280600081525061253a565b7f3e8c2ff71ab8d4da451571727a6996326cebed05b214e568b8ba1015d290016c338460405161147992919061449e565b60405180910390a1505050565b606081518351146114d257815183516040517f5b0599910000000000000000000000000000000000000000000000000000000081526004016114c99291906148be565b60405180910390fd5b6000835167ffffffffffffffff8111156114ef576114ee6135b0565b5b60405190808252806020026020018201604052801561151d5781602001602082028036833780820191505090505b50905060005b845181101561158a5761155a611542828761254c90919063ffffffff16565b611555838761256090919063ffffffff16565b6106ca565b82828151811061156d5761156c6148e7565b5b6020026020010181815250508061158390614916565b9050611523565b508091505092915050565b6000806115a183611e92565b119050919050565b600a5481565b6115b7612393565b73ffffffffffffffffffffffffffffffffffffffff168373ffffffffffffffffffffffffffffffffffffffff161415801561160057506115fe836115f9612393565b611eaf565b155b1561164b5761160d612393565b836040517fe237d922000000000000000000000000000000000000000000000000000000008152600401611642929190614575565b60405180910390fd5b611656838383612574565b505050565b6116636121df565b61166d6000612608565b565b6000600360009054906101000a900473ffffffffffffffffffffffffffffffffffffffff16905090565b806000805b600d600084815260200190815260200160002060070180549050811015611760573373ffffffffffffffffffffffffffffffffffffffff16600d600085815260200190815260200160002060070182815481106116fe576116fd6148e7565b5b9060005260206000200160009054906101000a900473ffffffffffffffffffffffffffffffffffffffff1673ffffffffffffffffffffffffffffffffffffffff160361174d5760019150611760565b808061175890614916565b91505061169e565b50806117a1576040517f08c379a0000000000000000000000000000000000000000000000000000000008152600401611798906149aa565b60405180910390fd5b60011515600d600085815260200190815260200160002060040160009054906101000a900460ff1615151461180b576040517f08c379a00000000000000000000000000000000000000000000000000000000081526004016118029061468f565b60405180910390fd5b60001515600e600085815260200190815260200160002060003373ffffffffffffffffffffffffffffffffffffffff1673ffffffffffffffffffffffffffffffffffffffff16815260200190815260200160002060009054906101000a900460ff161515146118af576040517f08c379a00000000000000000000000000000000000000000000000000000000081526004016118a690614a16565b60405180910390fd5b6118f1338460016040518060400160405280600381526020017f307830000000000000000000000000000000000000000000000000000000000081525061253a565b6001600e600085815260200190815260200160002060003373ffffffffffffffffffffffffffffffffffffffff1673ffffffffffffffffffffffffffffffffffffffff16815260200190815260200160002060006101000a81548160ff021916908315150217905550505050565b60085481565b60075481565b61197d611976612393565b83836126ce565b5050565b603c600d6000848152602001908152602001600020600201546119a491906145cd565b600d6000848152602001908152602001600020600301546119c5919061460f565b4210611a06576040517f08c379a00000000000000000000000000000000000000000000000000000000081526004016119fd90614aa8565b60405180910390fd5b60001515600d600084815260200190815260200160002060040160009054906101000a900460ff16151514611a70576040517f08c379a0000000000000000000000000000000000000000000000000000000008152600401611a67906146fb565b60405180910390fd5b600d600083815260200190815260200160002060080154811015611ac9576040517f08c379a0000000000000000000000000000000000000000000000000000000008152600401611ac090614b14565b60405180910390fd5b611b0c33306000846040518060400160405280600381526020017f3078300000000000000000000000000000000000000000000000000000000000815250611f9b565b80600d600084815260200190815260200160002060060154611b2e919061460f565b600d600084815260200190815260200160002060060181905550600d6000838152602001908152602001600020600701339080600181540180825580915050600190039060005260206000200160009091909190916101000a81548173ffffffffffffffffffffffffffffffffffffffff021916908373ffffffffffffffffffffffffffffffffffffffff1602179055505050565b612760821115611c08576040517f08c379a0000000000000000000000000000000000000000000000000000000008152600401611bff90614b80565b60405180910390fd5b60008111611c4b576040517f08c379a0000000000000000000000000000000000000000000000000000000008152600401611c4290614c12565b60405180910390fd5b6000600a5490508686600d60008481526020019081526020016000206000019182611c77929190614de9565b508484600d60008481526020019081526020016000206005019182611c9d929190614de9565b5082600d60008381526020019081526020016000206002018190555033600d600083815260200190815260200160002060010160006101000a81548173ffffffffffffffffffffffffffffffffffffffff021916908373ffffffffffffffffffffffffffffffffffffffff16021790555042600d60008381526020019081526020016000206003018190555081600d600083815260200190815260200160002060080181905550611d928186868080601f016020809104026020016040519081016040528093929190818152602001838380828437600081840152601f19601f8201169050808301925050505050505061283e565b6001600a54611da1919061460f565b600a819055503373ffffffffffffffffffffffffffffffffffffffff16817ff22cae70e607af6996dd06272ccfe2798b3599892d6b5ba8c39f05ac3515556885604051611dee91906134bf565b60405180910390a350505050505050565b6000600187879050148015611e175750600185859050145b8015611e3d5750600087876000818110611e3457611e336148e7565b5b90506020020135145b611e7c576040517f08c379a0000000000000000000000000000000000000000000000000000000008152600401611e7390614f2b565b60405180910390fd5b63bc197c8160e01b905098975050505050505050565b600060046000838152602001908152602001600020549050919050565b6000600160008473ffffffffffffffffffffffffffffffffffffffff1673ffffffffffffffffffffffffffffffffffffffff16815260200190815260200160002060008373ffffffffffffffffffffffffffffffffffffffff1673ffffffffffffffffffffffffffffffffffffffff16815260200190815260200160002060009054906101000a900460ff16905092915050565b6000808514611f87576040517f08c379a0000000000000000000000000000000000000000000000000000000008152600401611f7e90614fbd565b60405180910390fd5b63f23a6e6160e01b90509695505050505050565b6000611fa5612393565b90508073ffffffffffffffffffffffffffffffffffffffff168673ffffffffffffffffffffffffffffffffffffffff1614158015611fea5750611fe88682611eaf565b155b1561202e5780866040517fe237d922000000000000000000000000000000000000000000000000000000008152600401612025929190614575565b60405180910390fd5b61203b8686868686612863565b505050505050565b61204b6121df565b600073ffffffffffffffffffffffffffffffffffffffff168173ffffffffffffffffffffffffffffffffffffffff16036120bd5760006040517f1e4fbdf70000000000000000000000000000000000000000000000000000000081526004016120b49190613af1565b60405180910390fd5b6120c681612608565b50565b6120d1612393565b73ffffffffffffffffffffffffffffffffffffffff168373ffffffffffffffffffffffffffffffffffffffff161415801561211a575061211883612113612393565b611eaf565b155b1561216557612127612393565b836040517fe237d92200000000000000000000000000000000000000000000000000000000815260040161215c929190614575565b60405180910390fd5b612170838383612493565b505050565b60007f01ffc9a7000000000000000000000000000000000000000000000000000000007bffffffffffffffffffffffffffffffffffffffffffffffffffffffff1916827bffffffffffffffffffffffffffffffffffffffffffffffffffffffff1916149050919050565b6121e7612393565b73ffffffffffffffffffffffffffffffffffffffff1661220561166f565b73ffffffffffffffffffffffffffffffffffffffff161461226457612228612393565b6040517f118cdaa700000000000000000000000000000000000000000000000000000000815260040161225b9190613af1565b60405180910390fd5b565b80600290816122759190614fdd565b5050565b60606002805461228890614401565b80601f01602080910402602001604051908101604052809291908181526020018280546122b490614401565b80156123015780601f106122d657610100808354040283529160200191612301565b820191906000526020600020905b8154815290600101906020018083116122e457829003601f168201915b50505050509050919050565b600073ffffffffffffffffffffffffffffffffffffffff168473ffffffffffffffffffffffffffffffffffffffff160361237f5760006040517f57f447ce0000000000000000000000000000000000000000000000000000000081526004016123769190613af1565b60405180910390fd5b61238d60008585858561296e565b50505050565b600033905090565b600073ffffffffffffffffffffffffffffffffffffffff168473ffffffffffffffffffffffffffffffffffffffff160361240d5760006040517f57f447ce0000000000000000000000000000000000000000000000000000000081526004016124049190613af1565b60405180910390fd5b600073ffffffffffffffffffffffffffffffffffffffff168573ffffffffffffffffffffffffffffffffffffffff160361247f5760006040517f01a835140000000000000000000000000000000000000000000000000000000081526004016124769190613af1565b60405180910390fd5b61248c858585858561296e565b5050505050565b600073ffffffffffffffffffffffffffffffffffffffff168373ffffffffffffffffffffffffffffffffffffffff16036125055760006040517f01a835140000000000000000000000000000000000000000000000000000000081526004016124fc9190613af1565b60405180910390fd5b6000806125128484612a20565b9150915061253385600084846040518060200160405280600081525061296e565b5050505050565b61254684848484612a50565b50505050565b600060208202602084010151905092915050565b600060208202602084010151905092915050565b600073ffffffffffffffffffffffffffffffffffffffff168373ffffffffffffffffffffffffffffffffffffffff16036125e65760006040517f01a835140000000000000000000000000000000000000000000000000000000081526004016125dd9190613af1565b60405180910390fd5b61260383600084846040518060200160405280600081525061296e565b505050565b6000600360009054906101000a900473ffffffffffffffffffffffffffffffffffffffff16905081600360006101000a81548173ffffffffffffffffffffffffffffffffffffffff021916908373ffffffffffffffffffffffffffffffffffffffff1602179055508173ffffffffffffffffffffffffffffffffffffffff168173ffffffffffffffffffffffffffffffffffffffff167f8be0079c531659141344cd1fd0a4f28419497f9722a3daafe3b4186f6b6457e060405160405180910390a35050565b600073ffffffffffffffffffffffffffffffffffffffff168273ffffffffffffffffffffffffffffffffffffffff16036127405760006040517fced3e1000000000000000000000000000000000000000000000000000000000081526004016127379190613af1565b60405180910390fd5b80600160008573ffffffffffffffffffffffffffffffffffffffff1673ffffffffffffffffffffffffffffffffffffffff16815260200190815260200160002060008473ffffffffffffffffffffffffffffffffffffffff1673ffffffffffffffffffffffffffffffffffffffff16815260200190815260200160002060006101000a81548160ff0219169083151502179055508173ffffffffffffffffffffffffffffffffffffffff168373ffffffffffffffffffffffffffffffffffffffff167f17307eab39ab6107e8899845ad3d59bd9653f200f220920489ca2b5937696c3183604051612831919061357a565b60405180910390a3505050565b80600b6000848152602001908152602001600020908161285e9190614fdd565b505050565b600073ffffffffffffffffffffffffffffffffffffffff168473ffffffffffffffffffffffffffffffffffffffff16036128d55760006040517f57f447ce0000000000000000000000000000000000000000000000000000000081526004016128cc9190613af1565b60405180910390fd5b600073ffffffffffffffffffffffffffffffffffffffff168573ffffffffffffffffffffffffffffffffffffffff16036129475760006040517f01a8351400000000000000000000000000000000000000000000000000000000815260040161293e9190613af1565b60405180910390fd5b6000806129548585612a20565b91509150612965878784848761296e565b50505050505050565b61297a85858585612ae9565b600073ffffffffffffffffffffffffffffffffffffffff168473ffffffffffffffffffffffffffffffffffffffff1614612a195760006129b8612393565b90506001845103612a085760006129d960008661256090919063ffffffff16565b905060006129f160008661256090919063ffffffff16565b9050612a01838989858589612afb565b5050612a17565b612a16818787878787612caf565b5b505b5050505050565b60608060405191506001825283602083015260408201905060018152826020820152604081016040529250929050565b600073ffffffffffffffffffffffffffffffffffffffff168473ffffffffffffffffffffffffffffffffffffffff1603612ac25760006040517f57f447ce000000000000000000000000000000000000000000000000000000008152600401612ab99190613af1565b60405180910390fd5b600080612acf8585612a20565b91509150612ae160008784848761296e565b505050505050565b612af584848484612e63565b50505050565b60008473ffffffffffffffffffffffffffffffffffffffff163b1115612ca7578373ffffffffffffffffffffffffffffffffffffffff1663f23a6e6187878686866040518663ffffffff1660e01b8152600401612b5c959493929190615104565b6020604051808303816000875af1925050508015612b9857506040513d601f19601f82011682018060405250810190612b959190615173565b60015b612c1c573d8060008114612bc8576040519150601f19603f3d011682016040523d82523d6000602084013e612bcd565b606091505b506000815103612c1457846040517f57f447ce000000000000000000000000000000000000000000000000000000008152600401612c0b9190613af1565b60405180910390fd5b805181602001fd5b63f23a6e6160e01b7bffffffffffffffffffffffffffffffffffffffffffffffffffffffff1916817bffffffffffffffffffffffffffffffffffffffffffffffffffffffff191614612ca557846040517f57f447ce000000000000000000000000000000000000000000000000000000008152600401612c9c9190613af1565b60405180910390fd5b505b505050505050565b60008473ffffffffffffffffffffffffffffffffffffffff163b1115612e5b578373ffffffffffffffffffffffffffffffffffffffff1663bc197c8187878686866040518663ffffffff1660e01b8152600401612d109594939291906151a0565b6020604051808303816000875af1925050508015612d4c57506040513d601f19601f82011682018060405250810190612d499190615173565b60015b612dd0573d8060008114612d7c576040519150601f19603f3d011682016040523d82523d6000602084013e612d81565b606091505b506000815103612dc857846040517f57f447ce000000000000000000000000000000000000000000000000000000008152600401612dbf9190613af1565b60405180910390fd5b805181602001fd5b63bc197c8160e01b7bffffffffffffffffffffffffffffffffffffffffffffffffffffffff1916817bffffffffffffffffffffffffffffffffffffffffffffffffffffffff191614612e5957846040517f57f447ce000000000000000000000000000000000000000000000000000000008152600401612e509190613af1565b60405180910390fd5b505b505050505050565b612e6f8484848461301a565b600073ffffffffffffffffffffffffffffffffffffffff168473ffffffffffffffffffffffffffffffffffffffff1603612f4f576000805b8351811015612f33576000838281518110612ec557612ec46148e7565b5b602002602001015190508060046000878581518110612ee757612ee66148e7565b5b602002602001015181526020019081526020016000206000828254612f0c919061460f565b925050819055508083612f1f919061460f565b92505080612f2c90614916565b9050612ea7565b508060056000828254612f46919061460f565b92505081905550505b600073ffffffffffffffffffffffffffffffffffffffff168373ffffffffffffffffffffffffffffffffffffffff1603613014576000805b8351811015613001576000838281518110612fa557612fa46148e7565b5b602002602001015190508060046000878581518110612fc757612fc66148e7565b5b602002602001015181526020019081526020016000206000828254039250508190555080830192505080612ffa90614916565b9050612f87565b5080600560008282540392505081905550505b50505050565b805182511461306457815181516040517f5b05999100000000000000000000000000000000000000000000000000000000815260040161305b9291906148be565b60405180910390fd5b600061306e612393565b905060005b8351811015613283576000613091828661256090919063ffffffff16565b905060006130a8838661256090919063ffffffff16565b9050600073ffffffffffffffffffffffffffffffffffffffff168873ffffffffffffffffffffffffffffffffffffffff16146131d557600080600084815260200190815260200160002060008a73ffffffffffffffffffffffffffffffffffffffff1673ffffffffffffffffffffffffffffffffffffffff1681526020019081526020016000205490508181101561317d57888183856040517f03dee4c50000000000000000000000000000000000000000000000000000000081526004016131749493929190615208565b60405180910390fd5b81810360008085815260200190815260200160002060008b73ffffffffffffffffffffffffffffffffffffffff1673ffffffffffffffffffffffffffffffffffffffff16815260200190815260200160002081905550505b600073ffffffffffffffffffffffffffffffffffffffff168773ffffffffffffffffffffffffffffffffffffffff1614613270578060008084815260200190815260200160002060008973ffffffffffffffffffffffffffffffffffffffff1673ffffffffffffffffffffffffffffffffffffffff1681526020019081526020016000206000828254613268919061460f565b925050819055505b50508061327c90614916565b9050613073565b5060018351036133425760006132a360008561256090919063ffffffff16565b905060006132bb60008561256090919063ffffffff16565b90508573ffffffffffffffffffffffffffffffffffffffff168773ffffffffffffffffffffffffffffffffffffffff168473ffffffffffffffffffffffffffffffffffffffff167fc3d58168c5ae7397731d063d5bbf3d657854427343f4c083240f7aacaa2d0f6285856040516133339291906148be565b60405180910390a450506133c1565b8373ffffffffffffffffffffffffffffffffffffffff168573ffffffffffffffffffffffffffffffffffffffff168273ffffffffffffffffffffffffffffffffffffffff167f4a39dc06d4c0dbc64b70af90fd698a233a518aa5d07e595d983b8c0526c8f7fb86866040516133b892919061524d565b60405180910390a45b5050505050565b6000604051905090565b600080fd5b600080fd5b600073ffffffffffffffffffffffffffffffffffffffff82169050919050565b6000613407826133dc565b9050919050565b613417816133fc565b811461342257600080fd5b50565b6000813590506134348161340e565b92915050565b6000819050919050565b61344d8161343a565b811461345857600080fd5b50565b60008135905061346a81613444565b92915050565b60008060408385031215613487576134866133d2565b5b600061349585828601613425565b92505060206134a68582860161345b565b9150509250929050565b6134b98161343a565b82525050565b60006020820190506134d460008301846134b0565b92915050565b60007fffffffff0000000000000000000000000000000000000000000000000000000082169050919050565b61350f816134da565b811461351a57600080fd5b50565b60008135905061352c81613506565b92915050565b600060208284031215613548576135476133d2565b5b60006135568482850161351d565b91505092915050565b60008115159050919050565b6135748161355f565b82525050565b600060208201905061358f600083018461356b565b92915050565b600080fd5b600080fd5b6000601f19601f8301169050919050565b7f4e487b7100000000000000000000000000000000000000000000000000000000600052604160045260246000fd5b6135e88261359f565b810181811067ffffffffffffffff82111715613607576136066135b0565b5b80604052505050565b600061361a6133c8565b905061362682826135df565b919050565b600067ffffffffffffffff821115613646576136456135b0565b5b61364f8261359f565b9050602081019050919050565b82818337600083830152505050565b600061367e6136798461362b565b613610565b90508281526020810184848401111561369a5761369961359a565b5b6136a584828561365c565b509392505050565b600082601f8301126136c2576136c1613595565b5b81356136d284826020860161366b565b91505092915050565b6000602082840312156136f1576136f06133d2565b5b600082013567ffffffffffffffff81111561370f5761370e6133d7565b5b61371b848285016136ad565b91505092915050565b6000806040838503121561373b5761373a6133d2565b5b60006137498582860161345b565b925050602061375a85828601613425565b9150509250929050565b60006020828403121561377a576137796133d2565b5b60006137888482850161345b565b91505092915050565b600081519050919050565b600082825260208201905092915050565b60005b838110156137cb5780820151818401526020810190506137b0565b60008484015250505050565b60006137e282613791565b6137ec818561379c565b93506137fc8185602086016137ad565b6138058161359f565b840191505092915050565b613819816133fc565b82525050565b600061010082019050818103600083015261383a818b6137d7565b9050613849602083018a613810565b61385660408301896134b0565b61386360608301886134b0565b613870608083018761356b565b81810360a083015261388281866137d7565b905061389160c08301856134b0565b61389e60e08301846134b0565b9998505050505050505050565b600060208201905081810360008301526138c581846137d7565b905092915050565b600067ffffffffffffffff8211156138e8576138e76135b0565b5b602082029050602081019050919050565b600080fd5b600061391161390c846138cd565b613610565b90508083825260208201905060208402830185811115613934576139336138f9565b5b835b8181101561395d5780613949888261345b565b845260208401935050602081019050613936565b5050509392505050565b600082601f83011261397c5761397b613595565b5b813561398c8482602086016138fe565b91505092915050565b600067ffffffffffffffff8211156139b0576139af6135b0565b5b6139b98261359f565b9050602081019050919050565b60006139d96139d484613995565b613610565b9050828152602081018484840111156139f5576139f461359a565b5b613a0084828561365c565b509392505050565b600082601f830112613a1d57613a1c613595565b5b8135613a2d8482602086016139c6565b91505092915050565b60008060008060808587031215613a5057613a4f6133d2565b5b6000613a5e87828801613425565b945050602085013567ffffffffffffffff811115613a7f57613a7e6133d7565b5b613a8b87828801613967565b935050604085013567ffffffffffffffff811115613aac57613aab6133d7565b5b613ab887828801613967565b925050606085013567ffffffffffffffff811115613ad957613ad86133d7565b5b613ae587828801613a08565b91505092959194509250565b6000602082019050613b066000830184613810565b92915050565b600080600080600060a08688031215613b2857613b276133d2565b5b6000613b3688828901613425565b9550506020613b4788828901613425565b945050604086013567ffffffffffffffff811115613b6857613b676133d7565b5b613b7488828901613967565b935050606086013567ffffffffffffffff811115613b9557613b946133d7565b5b613ba188828901613967565b925050608086013567ffffffffffffffff811115613bc257613bc16133d7565b5b613bce88828901613a08565b9150509295509295909350565b600060208284031215613bf157613bf06133d2565b5b6000613bff84828501613425565b91505092915050565b600067ffffffffffffffff821115613c2357613c226135b0565b5b602082029050602081019050919050565b6000613c47613c4284613c08565b613610565b90508083825260208201905060208402830185811115613c6a57613c696138f9565b5b835b81811015613c935780613c7f8882613425565b845260208401935050602081019050613c6c565b5050509392505050565b600082601f830112613cb257613cb1613595565b5b8135613cc2848260208601613c34565b91505092915050565b60008060408385031215613ce257613ce16133d2565b5b600083013567ffffffffffffffff811115613d0057613cff6133d7565b5b613d0c85828601613c9d565b925050602083013567ffffffffffffffff811115613d2d57613d2c6133d7565b5b613d3985828601613967565b9150509250929050565b600081519050919050565b600082825260208201905092915050565b6000819050602082019050919050565b613d788161343a565b82525050565b6000613d8a8383613d6f565b60208301905092915050565b6000602082019050919050565b6000613dae82613d43565b613db88185613d4e565b9350613dc383613d5f565b8060005b83811015613df4578151613ddb8882613d7e565b9750613de683613d96565b925050600181019050613dc7565b5085935050505092915050565b60006020820190508181036000830152613e1b8184613da3565b905092915050565b600080600060608486031215613e3c57613e3b6133d2565b5b6000613e4a86828701613425565b935050602084013567ffffffffffffffff811115613e6b57613e6a6133d7565b5b613e7786828701613967565b925050604084013567ffffffffffffffff811115613e9857613e976133d7565b5b613ea486828701613967565b9150509250925092565b613eb78161355f565b8114613ec257600080fd5b50565b600081359050613ed481613eae565b92915050565b60008060408385031215613ef157613ef06133d2565b5b6000613eff85828601613425565b9250506020613f1085828601613ec5565b9150509250929050565b60008060408385031215613f3157613f306133d2565b5b6000613f3f8582860161345b565b9250506020613f508582860161345b565b9150509250929050565b600080fd5b60008083601f840112613f7557613f74613595565b5b8235905067ffffffffffffffff811115613f9257613f91613f5a565b5b602083019150836001820283011115613fae57613fad6138f9565b5b9250929050565b60008060008060008060808789031215613fd257613fd16133d2565b5b600087013567ffffffffffffffff811115613ff057613fef6133d7565b5b613ffc89828a01613f5f565b9650965050602087013567ffffffffffffffff81111561401f5761401e6133d7565b5b61402b89828a01613f5f565b9450945050604061403e89828a0161345b565b925050606061404f89828a0161345b565b9150509295509295509295565b60008083601f84011261407257614071613595565b5b8235905067ffffffffffffffff81111561408f5761408e613f5a565b5b6020830191508360208202830111156140ab576140aa6138f9565b5b9250929050565b60008083601f8401126140c8576140c7613595565b5b8235905067ffffffffffffffff8111156140e5576140e4613f5a565b5b602083019150836001820283011115614101576141006138f9565b5b9250929050565b60008060008060008060008060a0898b031215614128576141276133d2565b5b60006141368b828c01613425565b98505060206141478b828c01613425565b975050604089013567ffffffffffffffff811115614168576141676133d7565b5b6141748b828c0161405c565b9650965050606089013567ffffffffffffffff811115614197576141966133d7565b5b6141a38b828c0161405c565b9450945050608089013567ffffffffffffffff8111156141c6576141c56133d7565b5b6141d28b828c016140b2565b92509250509295985092959890939650565b6141ed816134da565b82525050565b600060208201905061420860008301846141e4565b92915050565b60008060408385031215614225576142246133d2565b5b600061423385828601613425565b925050602061424485828601613425565b9150509250929050565b60008060008060008060a0878903121561426b5761426a6133d2565b5b600061427989828a01613425565b965050602061428a89828a01613425565b955050604061429b89828a0161345b565b94505060606142ac89828a0161345b565b935050608087013567ffffffffffffffff8111156142cd576142cc6133d7565b5b6142d989828a016140b2565b92509250509295509295509295565b600080600080600060a08688031215614304576143036133d2565b5b600061431288828901613425565b955050602061432388828901613425565b94505060406143348882890161345b565b93505060606143458882890161345b565b925050608086013567ffffffffffffffff811115614366576143656133d7565b5b61437288828901613a08565b9150509295509295909350565b600080600060608486031215614398576143976133d2565b5b60006143a686828701613425565b93505060206143b78682870161345b565b92505060406143c88682870161345b565b9150509250925092565b7f4e487b7100000000000000000000000000000000000000000000000000000000600052602260045260246000fd5b6000600282049050600182168061441957607f821691505b60208210810361442c5761442b6143d2565b5b50919050565b7f4e6f2070726f6669747320746f2074616b650000000000000000000000000000600082015250565b600061446860128361379c565b915061447382614432565b602082019050919050565b600060208201905081810360008301526144978161445b565b9050919050565b60006040820190506144b36000830185613810565b6144c060208301846134b0565b9392505050565b6000815190506144d681613eae565b92915050565b6000602082840312156144f2576144f16133d2565b5b6000614500848285016144c7565b91505092915050565b7f4661696c656420746f2073656e6420444149207061796d656e74000000000000600082015250565b600061453f601a8361379c565b915061454a82614509565b602082019050919050565b6000602082019050818103600083015261456e81614532565b9050919050565b600060408201905061458a6000830185613810565b6145976020830184613810565b9392505050565b7f4e487b7100000000000000000000000000000000000000000000000000000000600052601160045260246000fd5b60006145d88261343a565b91506145e38361343a565b92508282026145f18161343a565b915082820484148315176146085761460761459e565b5b5092915050565b600061461a8261343a565b91506146258361343a565b925082820190508082111561463d5761463c61459e565b5b92915050565b7f546865206576656e74206973207374696c6c206f6e676f696e67000000000000600082015250565b6000614679601a8361379c565b915061468482614643565b602082019050919050565b600060208201905081810360008301526146a88161466c565b9050919050565b7f4576656e742068617320656e6465640000000000000000000000000000000000600082015250565b60006146e5600f8361379c565b91506146f0826146af565b602082019050919050565b60006020820190508181036000830152614714816146d8565b9050919050565b7f4e487b7100000000000000000000000000000000000000000000000000000000600052601260045260246000fd5b60006147558261343a565b91506147608361343a565b9250826147705761476f61471b565b5b828204905092915050565b60006147868261343a565b91506147918361343a565b92508282039050818111156147a9576147a861459e565b5b92915050565b7f4e6f2044414920746f20636c61696d0000000000000000000000000000000000600082015250565b60006147e5600f8361379c565b91506147f0826147af565b602082019050919050565b60006020820190508181036000830152614814816147d8565b9050919050565b60006060820190506148306000830186613810565b61483d6020830185613810565b61484a60408301846134b0565b949350505050565b7f4661696c656420746f207265636569766520444149207061796d656e74000000600082015250565b6000614888601d8361379c565b915061489382614852565b602082019050919050565b600060208201905081810360008301526148b78161487b565b9050919050565b60006040820190506148d360008301856134b0565b6148e060208301846134b0565b9392505050565b7f4e487b7100000000000000000000000000000000000000000000000000000000600052603260045260246000fd5b60006149218261343a565b91507fffffffffffffffffffffffffffffffffffffffffffffffffffffffffffffffff82036149535761495261459e565b5b600182019050919050565b7f596f7520617265206e6f742061206d656d6265722e0000000000000000000000600082015250565b600061499460158361379c565b915061499f8261495e565b602082019050919050565b600060208201905081810360008301526149c381614987565b9050919050565b7f596f75206861766520616c7265616479206d696e74656420796f7572204e4654600082015250565b6000614a0060208361379c565b9150614a0b826149ca565b602082019050919050565b60006020820190508181036000830152614a2f816149f3565b9050919050565b7f5468652074696d6520746f207061792072657370656374732068617320656e6460008201527f6564000000000000000000000000000000000000000000000000000000000000602082015250565b6000614a9260228361379c565b9150614a9d82614a36565b604082019050919050565b60006020820190508181036000830152614ac181614a85565b9050919050565b7f546970206973206e6f74206c6172676520656e6f756768000000000000000000600082015250565b6000614afe60178361379c565b9150614b0982614ac8565b602082019050919050565b60006020820190508181036000830152614b2d81614af1565b9050919050565b7f4d6178696d756d206475726174696f6e2069732031207765656b000000000000600082015250565b6000614b6a601a8361379c565b9150614b7582614b34565b602082019050919050565b60006020820190508181036000830152614b9981614b5d565b9050919050565b7f416d6f756e7420746f207061727469636970617465206d757374206265206c6160008201527f72676572207468616e2030000000000000000000000000000000000000000000602082015250565b6000614bfc602b8361379c565b9150614c0782614ba0565b604082019050919050565b60006020820190508181036000830152614c2b81614bef565b9050919050565b600082905092915050565b60008190508160005260206000209050919050565b60006020601f8301049050919050565b600082821b905092915050565b600060088302614c9f7fffffffffffffffffffffffffffffffffffffffffffffffffffffffffffffffff82614c62565b614ca98683614c62565b95508019841693508086168417925050509392505050565b6000819050919050565b6000614ce6614ce1614cdc8461343a565b614cc1565b61343a565b9050919050565b6000819050919050565b614d0083614ccb565b614d14614d0c82614ced565b848454614c6f565b825550505050565b600090565b614d29614d1c565b614d34818484614cf7565b505050565b5b81811015614d5857614d4d600082614d21565b600181019050614d3a565b5050565b601f821115614d9d57614d6e81614c3d565b614d7784614c52565b81016020851015614d86578190505b614d9a614d9285614c52565b830182614d39565b50505b505050565b600082821c905092915050565b6000614dc060001984600802614da2565b1980831691505092915050565b6000614dd98383614daf565b9150826002028217905092915050565b614df38383614c32565b67ffffffffffffffff811115614e0c57614e0b6135b0565b5b614e168254614401565b614e21828285614d5c565b6000601f831160018114614e505760008415614e3e578287013590505b614e488582614dcd565b865550614eb0565b601f198416614e5e86614c3d565b60005b82811015614e8657848901358255600182019150602085019450602081019050614e61565b86831015614ea35784890135614e9f601f891682614daf565b8355505b6001600288020188555050505b50505050505050565b7f5468697320636f6e7472616374206f6e6c7920737570706f727473204e46542060008201527f726563656976616c730000000000000000000000000000000000000000000000602082015250565b6000614f1560298361379c565b9150614f2082614eb9565b604082019050919050565b60006020820190508181036000830152614f4481614f08565b9050919050565b7f5468697320636f6e747261637420646f6573206e6f7420737570706f7274204e60008201527f465420726563656976616c730000000000000000000000000000000000000000602082015250565b6000614fa7602c8361379c565b9150614fb282614f4b565b604082019050919050565b60006020820190508181036000830152614fd681614f9a565b9050919050565b614fe682613791565b67ffffffffffffffff811115614fff57614ffe6135b0565b5b6150098254614401565b615014828285614d5c565b600060209050601f8311600181146150475760008415615035578287015190505b61503f8582614dcd565b8655506150a7565b601f19841661505586614c3d565b60005b8281101561507d57848901518255600182019150602085019450602081019050615058565b8683101561509a5784890151615096601f891682614daf565b8355505b6001600288020188555050505b505050505050565b600081519050919050565b600082825260208201905092915050565b60006150d6826150af565b6150e081856150ba565b93506150f08185602086016137ad565b6150f98161359f565b840191505092915050565b600060a0820190506151196000830188613810565b6151266020830187613810565b61513360408301866134b0565b61514060608301856134b0565b818103608083015261515281846150cb565b90509695505050505050565b60008151905061516d81613506565b92915050565b600060208284031215615189576151886133d2565b5b60006151978482850161515e565b91505092915050565b600060a0820190506151b56000830188613810565b6151c26020830187613810565b81810360408301526151d48186613da3565b905081810360608301526151e88185613da3565b905081810360808301526151fc81846150cb565b90509695505050505050565b600060808201905061521d6000830187613810565b61522a60208301866134b0565b61523760408301856134b0565b61524460608301846134b0565b95945050505050565b600060408201905081810360008301526152678185613da3565b9050818103602083015261527b8184613da3565b9050939250505056fea2646970667358221220d2c346119b931b1c89cb3788c276628bb79581c24285ebb22b712b21c31649ad64736f6c63430008140033",
    "deployedBytecode": "0x608060405234801561001057600080fd5b50600436106102105760003560e01c80634f558e7911610125578063a316a595116100ad578063e985e9c51161007c578063e985e9c514610616578063f23a6e6114610646578063f242432a14610676578063f2fde38b14610692578063f5298aca146106ae57610210565b8063a316a5951461057e578063b704a5c51461059a578063bc197c81146105b6578063bd85b039146105e657610210565b80638da5cb5b116100f45780638da5cb5b146104ec578063926427441461050a5780639311ca69146105265780639858befb14610544578063a22cb4651461056257610210565b80634f558e791461047857806352c55db9146104a85780636b20c454146104c6578063715018a6146104e257610210565b80631f7fdffa116101a8578063330a347b11610177578063330a347b146103d657806336a525a4146103f25780634504f8b31461042257806349be2cd91461042c5780634e1273f41461044857610210565b80631f7fdffa146103765780632b957ffb146103925780632eaee35e1461039c5780632eb2c2d6146103ba57610210565b80630b791430116101e45780630b791430146102c15780630bb78ec1146102f85780630e89341c1461032857806318160ddd1461035857610210565b8062fdd58e1461021557806301ffc9a71461024557806302fe5305146102755780630378073314610291575b600080fd5b61022f600480360381019061022a9190613470565b6106ca565b60405161023c91906134bf565b60405180910390f35b61025f600480360381019061025a9190613532565b610724565b60405161026c919061357a565b60405180910390f35b61028f600480360381019061028a91906136db565b610806565b005b6102ab60048036038101906102a69190613724565b61081a565b6040516102b8919061357a565b60405180910390f35b6102db60048036038101906102d69190613764565b610849565b6040516102ef98979695949392919061381f565b60405180910390f35b610312600480360381019061030d9190613764565b6109ce565b60405161031f91906138ab565b60405180910390f35b610342600480360381019061033d9190613764565b610a6e565b60405161034f91906138ab565b60405180910390f35b610360610b4c565b60405161036d91906134bf565b60405180910390f35b610390600480360381019061038b9190613a36565b610b56565b005b61039a610b70565b005b6103a4610cb4565b6040516103b19190613af1565b60405180910390f35b6103d460048036038101906103cf9190613b0c565b610cda565b005b6103f060048036038101906103eb9190613764565b610d82565b005b61040c60048036038101906104079190613bdb565b611129565b60405161041991906134bf565b60405180910390f35b61042a611141565b005b61044660048036038101906104419190613764565b611334565b005b610462600480360381019061045d9190613ccb565b611486565b60405161046f9190613e01565b60405180910390f35b610492600480360381019061048d9190613764565b611595565b60405161049f919061357a565b60405180910390f35b6104b06115a9565b6040516104bd91906134bf565b60405180910390f35b6104e060048036038101906104db9190613e23565b6115af565b005b6104ea61165b565b005b6104f461166f565b6040516105019190613af1565b60405180910390f35b610524600480360381019061051f9190613764565b611699565b005b61052e61195f565b60405161053b91906134bf565b60405180910390f35b61054c611965565b60405161055991906134bf565b60405180910390f35b61057c60048036038101906105779190613eda565b61196b565b005b61059860048036038101906105939190613f1a565b611981565b005b6105b460048036038101906105af9190613fb5565b611bc3565b005b6105d060048036038101906105cb9190614108565b611dff565b6040516105dd91906141f3565b60405180910390f35b61060060048036038101906105fb9190613764565b611e92565b60405161060d91906134bf565b60405180910390f35b610630600480360381019061062b919061420e565b611eaf565b60405161063d919061357a565b60405180910390f35b610660600480360381019061065b919061424e565b611f43565b60405161066d91906141f3565b60405180910390f35b610690600480360381019061068b91906142e8565b611f9b565b005b6106ac60048036038101906106a79190613bdb565b612043565b005b6106c860048036038101906106c3919061437f565b6120c9565b005b600080600083815260200190815260200160002060008473ffffffffffffffffffffffffffffffffffffffff1673ffffffffffffffffffffffffffffffffffffffff16815260200190815260200160002054905092915050565b60007fd9b67a26000000000000000000000000000000000000000000000000000000007bffffffffffffffffffffffffffffffffffffffffffffffffffffffff1916827bffffffffffffffffffffffffffffffffffffffffffffffffffffffff191614806107ef57507f0e89341c000000000000000000000000000000000000000000000000000000007bffffffffffffffffffffffffffffffffffffffffffffffffffffffff1916827bffffffffffffffffffffffffffffffffffffffffffffffffffffffff1916145b806107ff57506107fe82612175565b5b9050919050565b61080e6121df565b61081781612266565b50565b600e6020528160005260406000206020528060005260406000206000915091509054906101000a900460ff1681565b600d60205280600052604060002060009150905080600001805461086c90614401565b80601f016020809104026020016040519081016040528092919081815260200182805461089890614401565b80156108e55780601f106108ba576101008083540402835291602001916108e5565b820191906000526020600020905b8154815290600101906020018083116108c857829003601f168201915b5050505050908060010160009054906101000a900473ffffffffffffffffffffffffffffffffffffffff16908060020154908060030154908060040160009054906101000a900460ff169080600501805461093f90614401565b80601f016020809104026020016040519081016040528092919081815260200182805461096b90614401565b80156109b85780601f1061098d576101008083540402835291602001916109b8565b820191906000526020600020905b81548152906001019060200180831161099b57829003601f168201915b5050505050908060060154908060080154905088565b600b60205280600052604060002060009150905080546109ed90614401565b80601f0160208091040260200160405190810160405280929190818152602001828054610a1990614401565b8015610a665780601f10610a3b57610100808354040283529160200191610a66565b820191906000526020600020905b815481529060010190602001808311610a4957829003601f168201915b505050505081565b60606000600b60008481526020019081526020016000208054610a9090614401565b90501115610b3b57600b60008381526020019081526020016000208054610ab690614401565b80601f0160208091040260200160405190810160405280929190818152602001828054610ae290614401565b8015610b2f5780601f10610b0457610100808354040283529160200191610b2f565b820191906000526020600020905b815481529060010190602001808311610b1257829003601f168201915b50505050509050610b47565b610b4482612279565b90505b919050565b6000600554905090565b610b5e6121df565b610b6a8484848461230d565b50505050565b610b786121df565b600060075411610bbd576040517f08c379a0000000000000000000000000000000000000000000000000000000008152600401610bb49061447e565b60405180910390fd5b6000600754905060006007819055506000600960009054906101000a900473ffffffffffffffffffffffffffffffffffffffff1673ffffffffffffffffffffffffffffffffffffffff1663a9059cbb33846040518363ffffffff1660e01b8152600401610c2b92919061449e565b6020604051808303816000875af1158015610c4a573d6000803e3d6000fd5b505050506040513d601f19601f82011682018060405250810190610c6e91906144dc565b905080610cb0576040517f08c379a0000000000000000000000000000000000000000000000000000000008152600401610ca790614555565b60405180910390fd5b5050565b600960009054906101000a900473ffffffffffffffffffffffffffffffffffffffff1681565b6000610ce4612393565b90508073ffffffffffffffffffffffffffffffffffffffff168673ffffffffffffffffffffffffffffffffffffffff1614158015610d295750610d278682611eaf565b155b15610d6d5780866040517fe237d922000000000000000000000000000000000000000000000000000000008152600401610d64929190614575565b60405180910390fd5b610d7a868686868661239b565b505050505050565b603c600d600083815260200190815260200160002060020154610da591906145cd565b600d600083815260200190815260200160002060030154610dc6919061460f565b421015610e08576040517f08c379a0000000000000000000000000000000000000000000000000000000008152600401610dff9061468f565b60405180910390fd5b60001515600d600083815260200190815260200160002060040160009054906101000a900460ff16151514610e72576040517f08c379a0000000000000000000000000000000000000000000000000000000008152600401610e69906146fb565b60405180910390fd5b6001600d600083815260200190815260200160002060040160006101000a81548160ff021916908315150217905550600060646008546061600d600086815260200190815260200160002060060154610ecb91906145cd565b610ed5919061474a565b610edf919061474a565b90506000600854600d600085815260200190815260200160002060060154610f07919061474a565b90508181610f15919061477b565b60078190555081600c6000600d600087815260200190815260200160002060010160009054906101000a900473ffffffffffffffffffffffffffffffffffffffff1673ffffffffffffffffffffffffffffffffffffffff1673ffffffffffffffffffffffffffffffffffffffff16815260200190815260200160002054610f9c919061460f565b600c6000600d600087815260200190815260200160002060010160009054906101000a900473ffffffffffffffffffffffffffffffffffffffff1673ffffffffffffffffffffffffffffffffffffffff1673ffffffffffffffffffffffffffffffffffffffff16815260200190815260200160002081905550611037306000600d600087815260200190815260200160002060060154612493565b611089600d600085815260200190815260200160002060010160009054906101000a900473ffffffffffffffffffffffffffffffffffffffff168460016040518060200160405280600081525061253a565b600d600084815260200190815260200160002060010160009054906101000a900473ffffffffffffffffffffffffffffffffffffffff1673ffffffffffffffffffffffffffffffffffffffff16837fa0441962c292676f801248e4c11ee634330cd2cbcecc6a0b7f61fad55707d1e1600d60008781526020019081526020016000206006015460405161111c91906134bf565b60405180910390a3505050565b600c6020528060005260406000206000915090505481565b6000600c60003373ffffffffffffffffffffffffffffffffffffffff1673ffffffffffffffffffffffffffffffffffffffff16815260200190815260200160002054116111c3576040517f08c379a00000000000000000000000000000000000000000000000000000000081526004016111ba906147fb565b60405180910390fd5b6000600c60003373ffffffffffffffffffffffffffffffffffffffff1673ffffffffffffffffffffffffffffffffffffffff1681526020019081526020016000205490506000600c60003373ffffffffffffffffffffffffffffffffffffffff1673ffffffffffffffffffffffffffffffffffffffff168152602001908152602001600020819055506000600960009054906101000a900473ffffffffffffffffffffffffffffffffffffffff1673ffffffffffffffffffffffffffffffffffffffff1663a9059cbb33846040518363ffffffff1660e01b81526004016112ab92919061449e565b6020604051808303816000875af11580156112ca573d6000803e3d6000fd5b505050506040513d601f19601f820116820180604052508101906112ee91906144dc565b905080611330576040517f08c379a000000000000000000000000000000000000000000000000000000000815260040161132790614555565b60405180910390fd5b5050565b60006008548261134491906145cd565b90506000600960009054906101000a900473ffffffffffffffffffffffffffffffffffffffff1673ffffffffffffffffffffffffffffffffffffffff166323b872dd3330856040518463ffffffff1660e01b81526004016113a79392919061481b565b6020604051808303816000875af11580156113c6573d6000803e3d6000fd5b505050506040513d601f19601f820116820180604052508101906113ea91906144dc565b90508061142c576040517f08c379a00000000000000000000000000000000000000000000000000000000081526004016114239061489e565b60405180910390fd5b611448336000856040518060200160405280600081525061253a565b7f3e8c2ff71ab8d4da451571727a6996326cebed05b214e568b8ba1015d290016c338460405161147992919061449e565b60405180910390a1505050565b606081518351146114d257815183516040517f5b0599910000000000000000000000000000000000000000000000000000000081526004016114c99291906148be565b60405180910390fd5b6000835167ffffffffffffffff8111156114ef576114ee6135b0565b5b60405190808252806020026020018201604052801561151d5781602001602082028036833780820191505090505b50905060005b845181101561158a5761155a611542828761254c90919063ffffffff16565b611555838761256090919063ffffffff16565b6106ca565b82828151811061156d5761156c6148e7565b5b6020026020010181815250508061158390614916565b9050611523565b508091505092915050565b6000806115a183611e92565b119050919050565b600a5481565b6115b7612393565b73ffffffffffffffffffffffffffffffffffffffff168373ffffffffffffffffffffffffffffffffffffffff161415801561160057506115fe836115f9612393565b611eaf565b155b1561164b5761160d612393565b836040517fe237d922000000000000000000000000000000000000000000000000000000008152600401611642929190614575565b60405180910390fd5b611656838383612574565b505050565b6116636121df565b61166d6000612608565b565b6000600360009054906101000a900473ffffffffffffffffffffffffffffffffffffffff16905090565b806000805b600d600084815260200190815260200160002060070180549050811015611760573373ffffffffffffffffffffffffffffffffffffffff16600d600085815260200190815260200160002060070182815481106116fe576116fd6148e7565b5b9060005260206000200160009054906101000a900473ffffffffffffffffffffffffffffffffffffffff1673ffffffffffffffffffffffffffffffffffffffff160361174d5760019150611760565b808061175890614916565b91505061169e565b50806117a1576040517f08c379a0000000000000000000000000000000000000000000000000000000008152600401611798906149aa565b60405180910390fd5b60011515600d600085815260200190815260200160002060040160009054906101000a900460ff1615151461180b576040517f08c379a00000000000000000000000000000000000000000000000000000000081526004016118029061468f565b60405180910390fd5b60001515600e600085815260200190815260200160002060003373ffffffffffffffffffffffffffffffffffffffff1673ffffffffffffffffffffffffffffffffffffffff16815260200190815260200160002060009054906101000a900460ff161515146118af576040517f08c379a00000000000000000000000000000000000000000000000000000000081526004016118a690614a16565b60405180910390fd5b6118f1338460016040518060400160405280600381526020017f307830000000000000000000000000000000000000000000000000000000000081525061253a565b6001600e600085815260200190815260200160002060003373ffffffffffffffffffffffffffffffffffffffff1673ffffffffffffffffffffffffffffffffffffffff16815260200190815260200160002060006101000a81548160ff021916908315150217905550505050565b60085481565b60075481565b61197d611976612393565b83836126ce565b5050565b603c600d6000848152602001908152602001600020600201546119a491906145cd565b600d6000848152602001908152602001600020600301546119c5919061460f565b4210611a06576040517f08c379a00000000000000000000000000000000000000000000000000000000081526004016119fd90614aa8565b60405180910390fd5b60001515600d600084815260200190815260200160002060040160009054906101000a900460ff16151514611a70576040517f08c379a0000000000000000000000000000000000000000000000000000000008152600401611a67906146fb565b60405180910390fd5b600d600083815260200190815260200160002060080154811015611ac9576040517f08c379a0000000000000000000000000000000000000000000000000000000008152600401611ac090614b14565b60405180910390fd5b611b0c33306000846040518060400160405280600381526020017f3078300000000000000000000000000000000000000000000000000000000000815250611f9b565b80600d600084815260200190815260200160002060060154611b2e919061460f565b600d600084815260200190815260200160002060060181905550600d6000838152602001908152602001600020600701339080600181540180825580915050600190039060005260206000200160009091909190916101000a81548173ffffffffffffffffffffffffffffffffffffffff021916908373ffffffffffffffffffffffffffffffffffffffff1602179055505050565b612760821115611c08576040517f08c379a0000000000000000000000000000000000000000000000000000000008152600401611bff90614b80565b60405180910390fd5b60008111611c4b576040517f08c379a0000000000000000000000000000000000000000000000000000000008152600401611c4290614c12565b60405180910390fd5b6000600a5490508686600d60008481526020019081526020016000206000019182611c77929190614de9565b508484600d60008481526020019081526020016000206005019182611c9d929190614de9565b5082600d60008381526020019081526020016000206002018190555033600d600083815260200190815260200160002060010160006101000a81548173ffffffffffffffffffffffffffffffffffffffff021916908373ffffffffffffffffffffffffffffffffffffffff16021790555042600d60008381526020019081526020016000206003018190555081600d600083815260200190815260200160002060080181905550611d928186868080601f016020809104026020016040519081016040528093929190818152602001838380828437600081840152601f19601f8201169050808301925050505050505061283e565b6001600a54611da1919061460f565b600a819055503373ffffffffffffffffffffffffffffffffffffffff16817ff22cae70e607af6996dd06272ccfe2798b3599892d6b5ba8c39f05ac3515556885604051611dee91906134bf565b60405180910390a350505050505050565b6000600187879050148015611e175750600185859050145b8015611e3d5750600087876000818110611e3457611e336148e7565b5b90506020020135145b611e7c576040517f08c379a0000000000000000000000000000000000000000000000000000000008152600401611e7390614f2b565b60405180910390fd5b63bc197c8160e01b905098975050505050505050565b600060046000838152602001908152602001600020549050919050565b6000600160008473ffffffffffffffffffffffffffffffffffffffff1673ffffffffffffffffffffffffffffffffffffffff16815260200190815260200160002060008373ffffffffffffffffffffffffffffffffffffffff1673ffffffffffffffffffffffffffffffffffffffff16815260200190815260200160002060009054906101000a900460ff16905092915050565b6000808514611f87576040517f08c379a0000000000000000000000000000000000000000000000000000000008152600401611f7e90614fbd565b60405180910390fd5b63f23a6e6160e01b90509695505050505050565b6000611fa5612393565b90508073ffffffffffffffffffffffffffffffffffffffff168673ffffffffffffffffffffffffffffffffffffffff1614158015611fea5750611fe88682611eaf565b155b1561202e5780866040517fe237d922000000000000000000000000000000000000000000000000000000008152600401612025929190614575565b60405180910390fd5b61203b8686868686612863565b505050505050565b61204b6121df565b600073ffffffffffffffffffffffffffffffffffffffff168173ffffffffffffffffffffffffffffffffffffffff16036120bd5760006040517f1e4fbdf70000000000000000000000000000000000000000000000000000000081526004016120b49190613af1565b60405180910390fd5b6120c681612608565b50565b6120d1612393565b73ffffffffffffffffffffffffffffffffffffffff168373ffffffffffffffffffffffffffffffffffffffff161415801561211a575061211883612113612393565b611eaf565b155b1561216557612127612393565b836040517fe237d92200000000000000000000000000000000000000000000000000000000815260040161215c929190614575565b60405180910390fd5b612170838383612493565b505050565b60007f01ffc9a7000000000000000000000000000000000000000000000000000000007bffffffffffffffffffffffffffffffffffffffffffffffffffffffff1916827bffffffffffffffffffffffffffffffffffffffffffffffffffffffff1916149050919050565b6121e7612393565b73ffffffffffffffffffffffffffffffffffffffff1661220561166f565b73ffffffffffffffffffffffffffffffffffffffff161461226457612228612393565b6040517f118cdaa700000000000000000000000000000000000000000000000000000000815260040161225b9190613af1565b60405180910390fd5b565b80600290816122759190614fdd565b5050565b60606002805461228890614401565b80601f01602080910402602001604051908101604052809291908181526020018280546122b490614401565b80156123015780601f106122d657610100808354040283529160200191612301565b820191906000526020600020905b8154815290600101906020018083116122e457829003601f168201915b50505050509050919050565b600073ffffffffffffffffffffffffffffffffffffffff168473ffffffffffffffffffffffffffffffffffffffff160361237f5760006040517f57f447ce0000000000000000000000000000000000000000000000000000000081526004016123769190613af1565b60405180910390fd5b61238d60008585858561296e565b50505050565b600033905090565b600073ffffffffffffffffffffffffffffffffffffffff168473ffffffffffffffffffffffffffffffffffffffff160361240d5760006040517f57f447ce0000000000000000000000000000000000000000000000000000000081526004016124049190613af1565b60405180910390fd5b600073ffffffffffffffffffffffffffffffffffffffff168573ffffffffffffffffffffffffffffffffffffffff160361247f5760006040517f01a835140000000000000000000000000000000000000000000000000000000081526004016124769190613af1565b60405180910390fd5b61248c858585858561296e565b5050505050565b600073ffffffffffffffffffffffffffffffffffffffff168373ffffffffffffffffffffffffffffffffffffffff16036125055760006040517f01a835140000000000000000000000000000000000000000000000000000000081526004016124fc9190613af1565b60405180910390fd5b6000806125128484612a20565b9150915061253385600084846040518060200160405280600081525061296e565b5050505050565b61254684848484612a50565b50505050565b600060208202602084010151905092915050565b600060208202602084010151905092915050565b600073ffffffffffffffffffffffffffffffffffffffff168373ffffffffffffffffffffffffffffffffffffffff16036125e65760006040517f01a835140000000000000000000000000000000000000000000000000000000081526004016125dd9190613af1565b60405180910390fd5b61260383600084846040518060200160405280600081525061296e565b505050565b6000600360009054906101000a900473ffffffffffffffffffffffffffffffffffffffff16905081600360006101000a81548173ffffffffffffffffffffffffffffffffffffffff021916908373ffffffffffffffffffffffffffffffffffffffff1602179055508173ffffffffffffffffffffffffffffffffffffffff168173ffffffffffffffffffffffffffffffffffffffff167f8be0079c531659141344cd1fd0a4f28419497f9722a3daafe3b4186f6b6457e060405160405180910390a35050565b600073ffffffffffffffffffffffffffffffffffffffff168273ffffffffffffffffffffffffffffffffffffffff16036127405760006040517fced3e1000000000000000000000000000000000000000000000000000000000081526004016127379190613af1565b60405180910390fd5b80600160008573ffffffffffffffffffffffffffffffffffffffff1673ffffffffffffffffffffffffffffffffffffffff16815260200190815260200160002060008473ffffffffffffffffffffffffffffffffffffffff1673ffffffffffffffffffffffffffffffffffffffff16815260200190815260200160002060006101000a81548160ff0219169083151502179055508173ffffffffffffffffffffffffffffffffffffffff168373ffffffffffffffffffffffffffffffffffffffff167f17307eab39ab6107e8899845ad3d59bd9653f200f220920489ca2b5937696c3183604051612831919061357a565b60405180910390a3505050565b80600b6000848152602001908152602001600020908161285e9190614fdd565b505050565b600073ffffffffffffffffffffffffffffffffffffffff168473ffffffffffffffffffffffffffffffffffffffff16036128d55760006040517f57f447ce0000000000000000000000000000000000000000000000000000000081526004016128cc9190613af1565b60405180910390fd5b600073ffffffffffffffffffffffffffffffffffffffff168573ffffffffffffffffffffffffffffffffffffffff16036129475760006040517f01a8351400000000000000000000000000000000000000000000000000000000815260040161293e9190613af1565b60405180910390fd5b6000806129548585612a20565b91509150612965878784848761296e565b50505050505050565b61297a85858585612ae9565b600073ffffffffffffffffffffffffffffffffffffffff168473ffffffffffffffffffffffffffffffffffffffff1614612a195760006129b8612393565b90506001845103612a085760006129d960008661256090919063ffffffff16565b905060006129f160008661256090919063ffffffff16565b9050612a01838989858589612afb565b5050612a17565b612a16818787878787612caf565b5b505b5050505050565b60608060405191506001825283602083015260408201905060018152826020820152604081016040529250929050565b600073ffffffffffffffffffffffffffffffffffffffff168473ffffffffffffffffffffffffffffffffffffffff1603612ac25760006040517f57f447ce000000000000000000000000000000000000000000000000000000008152600401612ab99190613af1565b60405180910390fd5b600080612acf8585612a20565b91509150612ae160008784848761296e565b505050505050565b612af584848484612e63565b50505050565b60008473ffffffffffffffffffffffffffffffffffffffff163b1115612ca7578373ffffffffffffffffffffffffffffffffffffffff1663f23a6e6187878686866040518663ffffffff1660e01b8152600401612b5c959493929190615104565b6020604051808303816000875af1925050508015612b9857506040513d601f19601f82011682018060405250810190612b959190615173565b60015b612c1c573d8060008114612bc8576040519150601f19603f3d011682016040523d82523d6000602084013e612bcd565b606091505b506000815103612c1457846040517f57f447ce000000000000000000000000000000000000000000000000000000008152600401612c0b9190613af1565b60405180910390fd5b805181602001fd5b63f23a6e6160e01b7bffffffffffffffffffffffffffffffffffffffffffffffffffffffff1916817bffffffffffffffffffffffffffffffffffffffffffffffffffffffff191614612ca557846040517f57f447ce000000000000000000000000000000000000000000000000000000008152600401612c9c9190613af1565b60405180910390fd5b505b505050505050565b60008473ffffffffffffffffffffffffffffffffffffffff163b1115612e5b578373ffffffffffffffffffffffffffffffffffffffff1663bc197c8187878686866040518663ffffffff1660e01b8152600401612d109594939291906151a0565b6020604051808303816000875af1925050508015612d4c57506040513d601f19601f82011682018060405250810190612d499190615173565b60015b612dd0573d8060008114612d7c576040519150601f19603f3d011682016040523d82523d6000602084013e612d81565b606091505b506000815103612dc857846040517f57f447ce000000000000000000000000000000000000000000000000000000008152600401612dbf9190613af1565b60405180910390fd5b805181602001fd5b63bc197c8160e01b7bffffffffffffffffffffffffffffffffffffffffffffffffffffffff1916817bffffffffffffffffffffffffffffffffffffffffffffffffffffffff191614612e5957846040517f57f447ce000000000000000000000000000000000000000000000000000000008152600401612e509190613af1565b60405180910390fd5b505b505050505050565b612e6f8484848461301a565b600073ffffffffffffffffffffffffffffffffffffffff168473ffffffffffffffffffffffffffffffffffffffff1603612f4f576000805b8351811015612f33576000838281518110612ec557612ec46148e7565b5b602002602001015190508060046000878581518110612ee757612ee66148e7565b5b602002602001015181526020019081526020016000206000828254612f0c919061460f565b925050819055508083612f1f919061460f565b92505080612f2c90614916565b9050612ea7565b508060056000828254612f46919061460f565b92505081905550505b600073ffffffffffffffffffffffffffffffffffffffff168373ffffffffffffffffffffffffffffffffffffffff1603613014576000805b8351811015613001576000838281518110612fa557612fa46148e7565b5b602002602001015190508060046000878581518110612fc757612fc66148e7565b5b602002602001015181526020019081526020016000206000828254039250508190555080830192505080612ffa90614916565b9050612f87565b5080600560008282540392505081905550505b50505050565b805182511461306457815181516040517f5b05999100000000000000000000000000000000000000000000000000000000815260040161305b9291906148be565b60405180910390fd5b600061306e612393565b905060005b8351811015613283576000613091828661256090919063ffffffff16565b905060006130a8838661256090919063ffffffff16565b9050600073ffffffffffffffffffffffffffffffffffffffff168873ffffffffffffffffffffffffffffffffffffffff16146131d557600080600084815260200190815260200160002060008a73ffffffffffffffffffffffffffffffffffffffff1673ffffffffffffffffffffffffffffffffffffffff1681526020019081526020016000205490508181101561317d57888183856040517f03dee4c50000000000000000000000000000000000000000000000000000000081526004016131749493929190615208565b60405180910390fd5b81810360008085815260200190815260200160002060008b73ffffffffffffffffffffffffffffffffffffffff1673ffffffffffffffffffffffffffffffffffffffff16815260200190815260200160002081905550505b600073ffffffffffffffffffffffffffffffffffffffff168773ffffffffffffffffffffffffffffffffffffffff1614613270578060008084815260200190815260200160002060008973ffffffffffffffffffffffffffffffffffffffff1673ffffffffffffffffffffffffffffffffffffffff1681526020019081526020016000206000828254613268919061460f565b925050819055505b50508061327c90614916565b9050613073565b5060018351036133425760006132a360008561256090919063ffffffff16565b905060006132bb60008561256090919063ffffffff16565b90508573ffffffffffffffffffffffffffffffffffffffff168773ffffffffffffffffffffffffffffffffffffffff168473ffffffffffffffffffffffffffffffffffffffff167fc3d58168c5ae7397731d063d5bbf3d657854427343f4c083240f7aacaa2d0f6285856040516133339291906148be565b60405180910390a450506133c1565b8373ffffffffffffffffffffffffffffffffffffffff168573ffffffffffffffffffffffffffffffffffffffff168273ffffffffffffffffffffffffffffffffffffffff167f4a39dc06d4c0dbc64b70af90fd698a233a518aa5d07e595d983b8c0526c8f7fb86866040516133b892919061524d565b60405180910390a45b5050505050565b6000604051905090565b600080fd5b600080fd5b600073ffffffffffffffffffffffffffffffffffffffff82169050919050565b6000613407826133dc565b9050919050565b613417816133fc565b811461342257600080fd5b50565b6000813590506134348161340e565b92915050565b6000819050919050565b61344d8161343a565b811461345857600080fd5b50565b60008135905061346a81613444565b92915050565b60008060408385031215613487576134866133d2565b5b600061349585828601613425565b92505060206134a68582860161345b565b9150509250929050565b6134b98161343a565b82525050565b60006020820190506134d460008301846134b0565b92915050565b60007fffffffff0000000000000000000000000000000000000000000000000000000082169050919050565b61350f816134da565b811461351a57600080fd5b50565b60008135905061352c81613506565b92915050565b600060208284031215613548576135476133d2565b5b60006135568482850161351d565b91505092915050565b60008115159050919050565b6135748161355f565b82525050565b600060208201905061358f600083018461356b565b92915050565b600080fd5b600080fd5b6000601f19601f8301169050919050565b7f4e487b7100000000000000000000000000000000000000000000000000000000600052604160045260246000fd5b6135e88261359f565b810181811067ffffffffffffffff82111715613607576136066135b0565b5b80604052505050565b600061361a6133c8565b905061362682826135df565b919050565b600067ffffffffffffffff821115613646576136456135b0565b5b61364f8261359f565b9050602081019050919050565b82818337600083830152505050565b600061367e6136798461362b565b613610565b90508281526020810184848401111561369a5761369961359a565b5b6136a584828561365c565b509392505050565b600082601f8301126136c2576136c1613595565b5b81356136d284826020860161366b565b91505092915050565b6000602082840312156136f1576136f06133d2565b5b600082013567ffffffffffffffff81111561370f5761370e6133d7565b5b61371b848285016136ad565b91505092915050565b6000806040838503121561373b5761373a6133d2565b5b60006137498582860161345b565b925050602061375a85828601613425565b9150509250929050565b60006020828403121561377a576137796133d2565b5b60006137888482850161345b565b91505092915050565b600081519050919050565b600082825260208201905092915050565b60005b838110156137cb5780820151818401526020810190506137b0565b60008484015250505050565b60006137e282613791565b6137ec818561379c565b93506137fc8185602086016137ad565b6138058161359f565b840191505092915050565b613819816133fc565b82525050565b600061010082019050818103600083015261383a818b6137d7565b9050613849602083018a613810565b61385660408301896134b0565b61386360608301886134b0565b613870608083018761356b565b81810360a083015261388281866137d7565b905061389160c08301856134b0565b61389e60e08301846134b0565b9998505050505050505050565b600060208201905081810360008301526138c581846137d7565b905092915050565b600067ffffffffffffffff8211156138e8576138e76135b0565b5b602082029050602081019050919050565b600080fd5b600061391161390c846138cd565b613610565b90508083825260208201905060208402830185811115613934576139336138f9565b5b835b8181101561395d5780613949888261345b565b845260208401935050602081019050613936565b5050509392505050565b600082601f83011261397c5761397b613595565b5b813561398c8482602086016138fe565b91505092915050565b600067ffffffffffffffff8211156139b0576139af6135b0565b5b6139b98261359f565b9050602081019050919050565b60006139d96139d484613995565b613610565b9050828152602081018484840111156139f5576139f461359a565b5b613a0084828561365c565b509392505050565b600082601f830112613a1d57613a1c613595565b5b8135613a2d8482602086016139c6565b91505092915050565b60008060008060808587031215613a5057613a4f6133d2565b5b6000613a5e87828801613425565b945050602085013567ffffffffffffffff811115613a7f57613a7e6133d7565b5b613a8b87828801613967565b935050604085013567ffffffffffffffff811115613aac57613aab6133d7565b5b613ab887828801613967565b925050606085013567ffffffffffffffff811115613ad957613ad86133d7565b5b613ae587828801613a08565b91505092959194509250565b6000602082019050613b066000830184613810565b92915050565b600080600080600060a08688031215613b2857613b276133d2565b5b6000613b3688828901613425565b9550506020613b4788828901613425565b945050604086013567ffffffffffffffff811115613b6857613b676133d7565b5b613b7488828901613967565b935050606086013567ffffffffffffffff811115613b9557613b946133d7565b5b613ba188828901613967565b925050608086013567ffffffffffffffff811115613bc257613bc16133d7565b5b613bce88828901613a08565b9150509295509295909350565b600060208284031215613bf157613bf06133d2565b5b6000613bff84828501613425565b91505092915050565b600067ffffffffffffffff821115613c2357613c226135b0565b5b602082029050602081019050919050565b6000613c47613c4284613c08565b613610565b90508083825260208201905060208402830185811115613c6a57613c696138f9565b5b835b81811015613c935780613c7f8882613425565b845260208401935050602081019050613c6c565b5050509392505050565b600082601f830112613cb257613cb1613595565b5b8135613cc2848260208601613c34565b91505092915050565b60008060408385031215613ce257613ce16133d2565b5b600083013567ffffffffffffffff811115613d0057613cff6133d7565b5b613d0c85828601613c9d565b925050602083013567ffffffffffffffff811115613d2d57613d2c6133d7565b5b613d3985828601613967565b9150509250929050565b600081519050919050565b600082825260208201905092915050565b6000819050602082019050919050565b613d788161343a565b82525050565b6000613d8a8383613d6f565b60208301905092915050565b6000602082019050919050565b6000613dae82613d43565b613db88185613d4e565b9350613dc383613d5f565b8060005b83811015613df4578151613ddb8882613d7e565b9750613de683613d96565b925050600181019050613dc7565b5085935050505092915050565b60006020820190508181036000830152613e1b8184613da3565b905092915050565b600080600060608486031215613e3c57613e3b6133d2565b5b6000613e4a86828701613425565b935050602084013567ffffffffffffffff811115613e6b57613e6a6133d7565b5b613e7786828701613967565b925050604084013567ffffffffffffffff811115613e9857613e976133d7565b5b613ea486828701613967565b9150509250925092565b613eb78161355f565b8114613ec257600080fd5b50565b600081359050613ed481613eae565b92915050565b60008060408385031215613ef157613ef06133d2565b5b6000613eff85828601613425565b9250506020613f1085828601613ec5565b9150509250929050565b60008060408385031215613f3157613f306133d2565b5b6000613f3f8582860161345b565b9250506020613f508582860161345b565b9150509250929050565b600080fd5b60008083601f840112613f7557613f74613595565b5b8235905067ffffffffffffffff811115613f9257613f91613f5a565b5b602083019150836001820283011115613fae57613fad6138f9565b5b9250929050565b60008060008060008060808789031215613fd257613fd16133d2565b5b600087013567ffffffffffffffff811115613ff057613fef6133d7565b5b613ffc89828a01613f5f565b9650965050602087013567ffffffffffffffff81111561401f5761401e6133d7565b5b61402b89828a01613f5f565b9450945050604061403e89828a0161345b565b925050606061404f89828a0161345b565b9150509295509295509295565b60008083601f84011261407257614071613595565b5b8235905067ffffffffffffffff81111561408f5761408e613f5a565b5b6020830191508360208202830111156140ab576140aa6138f9565b5b9250929050565b60008083601f8401126140c8576140c7613595565b5b8235905067ffffffffffffffff8111156140e5576140e4613f5a565b5b602083019150836001820283011115614101576141006138f9565b5b9250929050565b60008060008060008060008060a0898b031215614128576141276133d2565b5b60006141368b828c01613425565b98505060206141478b828c01613425565b975050604089013567ffffffffffffffff811115614168576141676133d7565b5b6141748b828c0161405c565b9650965050606089013567ffffffffffffffff811115614197576141966133d7565b5b6141a38b828c0161405c565b9450945050608089013567ffffffffffffffff8111156141c6576141c56133d7565b5b6141d28b828c016140b2565b92509250509295985092959890939650565b6141ed816134da565b82525050565b600060208201905061420860008301846141e4565b92915050565b60008060408385031215614225576142246133d2565b5b600061423385828601613425565b925050602061424485828601613425565b9150509250929050565b60008060008060008060a0878903121561426b5761426a6133d2565b5b600061427989828a01613425565b965050602061428a89828a01613425565b955050604061429b89828a0161345b565b94505060606142ac89828a0161345b565b935050608087013567ffffffffffffffff8111156142cd576142cc6133d7565b5b6142d989828a016140b2565b92509250509295509295509295565b600080600080600060a08688031215614304576143036133d2565b5b600061431288828901613425565b955050602061432388828901613425565b94505060406143348882890161345b565b93505060606143458882890161345b565b925050608086013567ffffffffffffffff811115614366576143656133d7565b5b61437288828901613a08565b9150509295509295909350565b600080600060608486031215614398576143976133d2565b5b60006143a686828701613425565b93505060206143b78682870161345b565b92505060406143c88682870161345b565b9150509250925092565b7f4e487b7100000000000000000000000000000000000000000000000000000000600052602260045260246000fd5b6000600282049050600182168061441957607f821691505b60208210810361442c5761442b6143d2565b5b50919050565b7f4e6f2070726f6669747320746f2074616b650000000000000000000000000000600082015250565b600061446860128361379c565b915061447382614432565b602082019050919050565b600060208201905081810360008301526144978161445b565b9050919050565b60006040820190506144b36000830185613810565b6144c060208301846134b0565b9392505050565b6000815190506144d681613eae565b92915050565b6000602082840312156144f2576144f16133d2565b5b6000614500848285016144c7565b91505092915050565b7f4661696c656420746f2073656e6420444149207061796d656e74000000000000600082015250565b600061453f601a8361379c565b915061454a82614509565b602082019050919050565b6000602082019050818103600083015261456e81614532565b9050919050565b600060408201905061458a6000830185613810565b6145976020830184613810565b9392505050565b7f4e487b7100000000000000000000000000000000000000000000000000000000600052601160045260246000fd5b60006145d88261343a565b91506145e38361343a565b92508282026145f18161343a565b915082820484148315176146085761460761459e565b5b5092915050565b600061461a8261343a565b91506146258361343a565b925082820190508082111561463d5761463c61459e565b5b92915050565b7f546865206576656e74206973207374696c6c206f6e676f696e67000000000000600082015250565b6000614679601a8361379c565b915061468482614643565b602082019050919050565b600060208201905081810360008301526146a88161466c565b9050919050565b7f4576656e742068617320656e6465640000000000000000000000000000000000600082015250565b60006146e5600f8361379c565b91506146f0826146af565b602082019050919050565b60006020820190508181036000830152614714816146d8565b9050919050565b7f4e487b7100000000000000000000000000000000000000000000000000000000600052601260045260246000fd5b60006147558261343a565b91506147608361343a565b9250826147705761476f61471b565b5b828204905092915050565b60006147868261343a565b91506147918361343a565b92508282039050818111156147a9576147a861459e565b5b92915050565b7f4e6f2044414920746f20636c61696d0000000000000000000000000000000000600082015250565b60006147e5600f8361379c565b91506147f0826147af565b602082019050919050565b60006020820190508181036000830152614814816147d8565b9050919050565b60006060820190506148306000830186613810565b61483d6020830185613810565b61484a60408301846134b0565b949350505050565b7f4661696c656420746f207265636569766520444149207061796d656e74000000600082015250565b6000614888601d8361379c565b915061489382614852565b602082019050919050565b600060208201905081810360008301526148b78161487b565b9050919050565b60006040820190506148d360008301856134b0565b6148e060208301846134b0565b9392505050565b7f4e487b7100000000000000000000000000000000000000000000000000000000600052603260045260246000fd5b60006149218261343a565b91507fffffffffffffffffffffffffffffffffffffffffffffffffffffffffffffffff82036149535761495261459e565b5b600182019050919050565b7f596f7520617265206e6f742061206d656d6265722e0000000000000000000000600082015250565b600061499460158361379c565b915061499f8261495e565b602082019050919050565b600060208201905081810360008301526149c381614987565b9050919050565b7f596f75206861766520616c7265616479206d696e74656420796f7572204e4654600082015250565b6000614a0060208361379c565b9150614a0b826149ca565b602082019050919050565b60006020820190508181036000830152614a2f816149f3565b9050919050565b7f5468652074696d6520746f207061792072657370656374732068617320656e6460008201527f6564000000000000000000000000000000000000000000000000000000000000602082015250565b6000614a9260228361379c565b9150614a9d82614a36565b604082019050919050565b60006020820190508181036000830152614ac181614a85565b9050919050565b7f546970206973206e6f74206c6172676520656e6f756768000000000000000000600082015250565b6000614afe60178361379c565b9150614b0982614ac8565b602082019050919050565b60006020820190508181036000830152614b2d81614af1565b9050919050565b7f4d6178696d756d206475726174696f6e2069732031207765656b000000000000600082015250565b6000614b6a601a8361379c565b9150614b7582614b34565b602082019050919050565b60006020820190508181036000830152614b9981614b5d565b9050919050565b7f416d6f756e7420746f207061727469636970617465206d757374206265206c6160008201527f72676572207468616e2030000000000000000000000000000000000000000000602082015250565b6000614bfc602b8361379c565b9150614c0782614ba0565b604082019050919050565b60006020820190508181036000830152614c2b81614bef565b9050919050565b600082905092915050565b60008190508160005260206000209050919050565b60006020601f8301049050919050565b600082821b905092915050565b600060088302614c9f7fffffffffffffffffffffffffffffffffffffffffffffffffffffffffffffffff82614c62565b614ca98683614c62565b95508019841693508086168417925050509392505050565b6000819050919050565b6000614ce6614ce1614cdc8461343a565b614cc1565b61343a565b9050919050565b6000819050919050565b614d0083614ccb565b614d14614d0c82614ced565b848454614c6f565b825550505050565b600090565b614d29614d1c565b614d34818484614cf7565b505050565b5b81811015614d5857614d4d600082614d21565b600181019050614d3a565b5050565b601f821115614d9d57614d6e81614c3d565b614d7784614c52565b81016020851015614d86578190505b614d9a614d9285614c52565b830182614d39565b50505b505050565b600082821c905092915050565b6000614dc060001984600802614da2565b1980831691505092915050565b6000614dd98383614daf565b9150826002028217905092915050565b614df38383614c32565b67ffffffffffffffff811115614e0c57614e0b6135b0565b5b614e168254614401565b614e21828285614d5c565b6000601f831160018114614e505760008415614e3e578287013590505b614e488582614dcd565b865550614eb0565b601f198416614e5e86614c3d565b60005b82811015614e8657848901358255600182019150602085019450602081019050614e61565b86831015614ea35784890135614e9f601f891682614daf565b8355505b6001600288020188555050505b5050e5050505050565b7f5468697320636f6e7472616374206f6e6c7920737570706f727473204e46542060008201527f726563656976616c730000000000000000000000000000000000000000000000602082015250565b6000614f1560298361379c565b9150614f2082614eb9565b604082019050919050565b60006020820190508181036000830152614f4481614f08565b9050919050565b7f5468697320636f6e747261637420646f6573206e6f7420737570706f7274204e60008201527f465420726563656976616c730000000000000000000000000000000000000000602082015250565b6000614fa7602c8361379c565b9150614fb282614f4b565b604082019050919050565b60006020820190508181036000830152614fd681614f9a565b9050919050565b614fe682613791565b67ffffffffffffffff811115614fff57614ffe6135b0565b5b6150098254614401565b615014828285614d5c565b600060209050601f8311600181146150475760008415615035578287015190505b61503f8582614dcd565b8655506150a7565b601f19841661505586614c3d565b60005b8281101561507d57848901518255600182019150602085019450602081019050615058565b8683101561509a5784890151615096601f891682614daf565b8355505b6001600288020188555050505b505050505050565b600081519050919050565b600082825260208201905092915050565b60006150d6826150af565b6150e081856150ba565b93506150f08185602086016137ad565b6150f98161359f565b840191505092915050565b600060a0820190506151196000830188613810565b6151266020830187613810565b61513360408301866134b0565b61514060608301856134b0565b818103608083015261515281846150cb565b90509695505050505050565b60008151905061516d81613506565b92915050565b600060208284031215615189576151886133d2565b5b60006151978482850161515e565b91505092915050565b600060a0820190506151b56000830188613810565b6151c26020830187613810565b81810360408301526151d48186613da3565b905081810360608301526151e88185613da3565b905081810360808301526151fc81846150cb565b90509695505050505050565b600060808201905061521d6000830187613810565b61522a60208301866134b0565b61523760408301856134b0565b61524460608301846134b0565b95945050505050565b600060408201905081810360008301526152678185613da3565b9050818103602083015261527b8184613da3565b9050939250505056fea2646970667358221220d2c346119b931b1c89cb3788c276628bb79581c24285ebb22b712b21c31649ad64736f6c63430008140033",
    "linkReferences": {},
    "deployedLinkReferences": {}
}