{
    "_format": "hh-sol-artifact-1",
    "contractName": "RIPNFT",
    "sourceName": "contracts/RIPNFT.sol",
    "abi": [
        {
            "inputs": [
                {
                    "internalType": "address",
                    "name": "_daiTokenAddress",
                    "type": "address"
                },
                {
                    "internalType": "string",
                    "name": "uri",
                    "type": "string"
                }
            ],
            "stateMutability": "nonpayable",
            "type": "constructor"
        },
        {
            "inputs": [
                {
                    "internalType": "address",
                    "name": "sender",
                    "type": "address"
                },
                {
                    "internalType": "uint256",
                    "name": "balance",
                    "type": "uint256"
                },
                {
                    "internalType": "uint256",
                    "name": "needed",
                    "type": "uint256"
                },
                {
                    "internalType": "uint256",
                    "name": "tokenId",
                    "type": "uint256"
                }
            ],
            "name": "ERC1155InsufficientBalance",
            "type": "error"
        },
        {
            "inputs": [
                {
                    "internalType": "address",
                    "name": "approver",
                    "type": "address"
                }
            ],
            "name": "ERC1155InvalidApprover",
            "type": "error"
        },
        {
            "inputs": [
                {
                    "internalType": "uint256",
                    "name": "idsLength",
                    "type": "uint256"
                },
                {
                    "internalType": "uint256",
                    "name": "valuesLength",
                    "type": "uint256"
                }
            ],
            "name": "ERC1155InvalidArrayLength",
            "type": "error"
        },
        {
            "inputs": [
                {
                    "internalType": "address",
                    "name": "operator",
                    "type": "address"
                }
            ],
            "name": "ERC1155InvalidOperator",
            "type": "error"
        },
        {
            "inputs": [
                {
                    "internalType": "address",
                    "name": "receiver",
                    "type": "address"
                }
            ],
            "name": "ERC1155InvalidReceiver",
            "type": "error"
        },
        {
            "inputs": [
                {
                    "internalType": "address",
                    "name": "sender",
                    "type": "address"
                }
            ],
            "name": "ERC1155InvalidSender",
            "type": "error"
        },
        {
            "inputs": [
                {
                    "internalType": "address",
                    "name": "operator",
                    "type": "address"
                },
                {
                    "internalType": "address",
                    "name": "owner",
                    "type": "address"
                }
            ],
            "name": "ERC1155MissingApprovalForAll",
            "type": "error"
        },
        {
            "inputs": [
                {
                    "internalType": "address",
                    "name": "owner",
                    "type": "address"
                }
            ],
            "name": "OwnableInvalidOwner",
            "type": "error"
        },
        {
            "inputs": [
                {
                    "internalType": "address",
                    "name": "account",
                    "type": "address"
                }
            ],
            "name": "OwnableUnauthorizedAccount",
            "type": "error"
        },
        {
            "anonymous": false,
            "inputs": [
                {
                    "indexed": true,
                    "internalType": "address",
                    "name": "account",
                    "type": "address"
                },
                {
                    "indexed": true,
                    "internalType": "address",
                    "name": "operator",
                    "type": "address"
                },
                {
                    "indexed": false,
                    "internalType": "bool",
                    "name": "approved",
                    "type": "bool"
                }
            ],
            "name": "ApprovalForAll",
            "type": "event"
        },
        {
            "anonymous": false,
            "inputs": [
                {
                    "indexed": false,
                    "internalType": "address",
                    "name": "payer",
                    "type": "address"
                },
                {
                    "indexed": false,
                    "internalType": "uint256",
                    "name": "amount",
                    "type": "uint256"
                }
            ],
            "name": "BuyFCoin",
            "type": "event"
        },
        {
            "anonymous": false,
            "inputs": [
                {
                    "indexed": false,
                    "internalType": "uint256",
                    "name": "ID",
                    "type": "uint256"
                },
                {
                    "indexed": true,
                    "internalType": "address",
                    "name": "creator",
                    "type": "address"
                },
                {
                    "indexed": false,
                    "internalType": "uint256",
                    "name": "amount",
                    "type": "uint256"
                }
            ],
            "name": "EventEnded",
            "type": "event"
        },
        {
            "anonymous": false,
            "inputs": [
                {
                    "indexed": false,
                    "internalType": "uint256",
                    "name": "ID",
                    "type": "uint256"
                },
                {
                    "indexed": true,
                    "internalType": "address",
                    "name": "creator",
                    "type": "address"
                },
                {
                    "indexed": false,
                    "internalType": "uint256",
                    "name": "duration",
                    "type": "uint256"
                }
            ],
            "name": "EventStarted",
            "type": "event"
        },
        {
            "anonymous": false,
            "inputs": [
                {
                    "indexed": true,
                    "internalType": "address",
                    "name": "previousOwner",
                    "type": "address"
                },
                {
                    "indexed": true,
                    "internalType": "address",
                    "name": "newOwner",
                    "type": "address"
                }
            ],
            "name": "OwnershipTransferred",
            "type": "event"
        },
        {
            "anonymous": false,
            "inputs": [
                {
                    "indexed": true,
                    "internalType": "address",
                    "name": "operator",
                    "type": "address"
                },
                {
                    "indexed": true,
                    "internalType": "address",
                    "name": "from",
                    "type": "address"
                },
                {
                    "indexed": true,
                    "internalType": "address",
                    "name": "to",
                    "type": "address"
                },
                {
                    "indexed": false,
                    "internalType": "uint256[]",
                    "name": "ids",
                    "type": "uint256[]"
                },
                {
                    "indexed": false,
                    "internalType": "uint256[]",
                    "name": "values",
                    "type": "uint256[]"
                }
            ],
            "name": "TransferBatch",
            "type": "event"
        },
        {
            "anonymous": false,
            "inputs": [
                {
                    "indexed": true,
                    "internalType": "address",
                    "name": "operator",
                    "type": "address"
                },
                {
                    "indexed": true,
                    "internalType": "address",
                    "name": "from",
                    "type": "address"
                },
                {
                    "indexed": true,
                    "internalType": "address",
                    "name": "to",
                    "type": "address"
                },
                {
                    "indexed": false,
                    "internalType": "uint256",
                    "name": "id",
                    "type": "uint256"
                },
                {
                    "indexed": false,
                    "internalType": "uint256",
                    "name": "value",
                    "type": "uint256"
                }
            ],
            "name": "TransferSingle",
            "type": "event"
        },
        {
            "anonymous": false,
            "inputs": [
                {
                    "indexed": false,
                    "internalType": "string",
                    "name": "value",
                    "type": "string"
                },
                {
                    "indexed": true,
                    "internalType": "uint256",
                    "name": "id",
                    "type": "uint256"
                }
            ],
            "name": "URI",
            "type": "event"
        },
        {
            "inputs": [
                {
                    "internalType": "uint256",
                    "name": "",
                    "type": "uint256"
                }
            ],
            "name": "_tokenURIs",
            "outputs": [
                {
                    "internalType": "string",
                    "name": "",
                    "type": "string"
                }
            ],
            "stateMutability": "view",
            "type": "function"
        },
        {
            "inputs": [],
            "name": "adminBalance",
            "outputs": [
                {
                    "internalType": "uint256",
                    "name": "",
                    "type": "uint256"
                }
            ],
            "stateMutability": "view",
            "type": "function"
        },
        {
            "inputs": [
                {
                    "internalType": "address",
                    "name": "account",
                    "type": "address"
                },
                {
                    "internalType": "uint256",
                    "name": "id",
                    "type": "uint256"
                }
            ],
            "name": "balanceOf",
            "outputs": [
                {
                    "internalType": "uint256",
                    "name": "",
                    "type": "uint256"
                }
            ],
            "stateMutability": "view",
            "type": "function"
        },
        {
            "inputs": [
                {
                    "internalType": "address[]",
                    "name": "accounts",
                    "type": "address[]"
                },
                {
                    "internalType": "uint256[]",
                    "name": "ids",
                    "type": "uint256[]"
                }
            ],
            "name": "balanceOfBatch",
            "outputs": [
                {
                    "internalType": "uint256[]",
                    "name": "",
                    "type": "uint256[]"
                }
            ],
            "stateMutability": "view",
            "type": "function"
        },
        {
            "inputs": [
                {
                    "internalType": "address",
                    "name": "account",
                    "type": "address"
                },
                {
                    "internalType": "uint256",
                    "name": "id",
                    "type": "uint256"
                },
                {
                    "internalType": "uint256",
                    "name": "value",
                    "type": "uint256"
                }
            ],
            "name": "burn",
            "outputs": [],
            "stateMutability": "nonpayable",
            "type": "function"
        },
        {
            "inputs": [
                {
                    "internalType": "address",
                    "name": "account",
                    "type": "address"
                },
                {
                    "internalType": "uint256[]",
                    "name": "ids",
                    "type": "uint256[]"
                },
                {
                    "internalType": "uint256[]",
                    "name": "values",
                    "type": "uint256[]"
                }
            ],
            "name": "burnBatch",
            "outputs": [],
            "stateMutability": "nonpayable",
            "type": "function"
        },
        {
            "inputs": [],
            "name": "claimDAI",
            "outputs": [],
            "stateMutability": "nonpayable",
            "type": "function"
        },
        {
            "inputs": [
                {
                    "internalType": "address",
                    "name": "",
                    "type": "address"
                }
            ],
            "name": "creatorCut",
            "outputs": [
                {
                    "internalType": "uint256",
                    "name": "",
                    "type": "uint256"
                }
            ],
            "stateMutability": "view",
            "type": "function"
        },
        {
            "inputs": [],
            "name": "daiTokenAddress",
            "outputs": [
                {
                    "internalType": "address",
                    "name": "",
                    "type": "address"
                }
            ],
            "stateMutability": "view",
            "type": "function"
        },
        {
            "inputs": [
                {
                    "internalType": "uint256",
                    "name": "_eventID",
                    "type": "uint256"
                }
            ],
            "name": "endEvent",
            "outputs": [],
            "stateMutability": "nonpayable",
            "type": "function"
        },
        {
            "inputs": [
                {
                    "internalType": "uint256",
                    "name": "",
                    "type": "uint256"
                }
            ],
            "name": "events",
            "outputs": [
                {
                    "internalType": "string",
                    "name": "Name",
                    "type": "string"
                },
                {
                    "internalType": "address",
                    "name": "Creator",
                    "type": "address"
                },
                {
                    "internalType": "uint256",
                    "name": "Duration",
                    "type": "uint256"
                },
                {
                    "internalType": "uint256",
                    "name": "StartTime",
                    "type": "uint256"
                },
                {
                    "internalType": "bool",
                    "name": "HasEnded",
                    "type": "bool"
                },
                {
                    "internalType": "string",
                    "name": "NFTURI",
                    "type": "string"
                },
                {
                    "internalType": "uint256",
                    "name": "FCoins",
                    "type": "uint256"
                },
                {
                    "internalType": "uint256",
                    "name": "MinimumTip",
                    "type": "uint256"
                }
            ],
            "stateMutability": "view",
            "type": "function"
        },
        {
            "inputs": [
                {
                    "internalType": "uint256",
                    "name": "id",
                    "type": "uint256"
                }
            ],
            "name": "exists",
            "outputs": [
                {
                    "internalType": "bool",
                    "name": "",
                    "type": "bool"
                }
            ],
            "stateMutability": "view",
            "type": "function"
        },
        {
            "inputs": [
                {
                    "internalType": "uint256",
                    "name": "_amount",
                    "type": "uint256"
                }
            ],
            "name": "getFcoins",
            "outputs": [],
            "stateMutability": "nonpayable",
            "type": "function"
        },
        {
            "inputs": [
                {
                    "internalType": "uint256",
                    "name": "",
                    "type": "uint256"
                },
                {
                    "internalType": "address",
                    "name": "",
                    "type": "address"
                }
            ],
            "name": "hasMinted",
            "outputs": [
                {
                    "internalType": "bool",
                    "name": "",
                    "type": "bool"
                }
            ],
            "stateMutability": "view",
            "type": "function"
        },
        {
            "inputs": [
                {
                    "internalType": "address",
                    "name": "account",
                    "type": "address"
                },
                {
                    "internalType": "address",
                    "name": "operator",
                    "type": "address"
                }
            ],
            "name": "isApprovedForAll",
            "outputs": [
                {
                    "internalType": "bool",
                    "name": "",
                    "type": "bool"
                }
            ],
            "stateMutability": "view",
            "type": "function"
        },
        {
            "inputs": [
                {
                    "internalType": "address",
                    "name": "to",
                    "type": "address"
                },
                {
                    "internalType": "uint256[]",
                    "name": "ids",
                    "type": "uint256[]"
                },
                {
                    "internalType": "uint256[]",
                    "name": "amounts",
                    "type": "uint256[]"
                },
                {
                    "internalType": "bytes",
                    "name": "data",
                    "type": "bytes"
                }
            ],
            "name": "mintBatch",
            "outputs": [],
            "stateMutability": "nonpayable",
            "type": "function"
        },
        {
            "inputs": [
                {
                    "internalType": "uint256",
                    "name": "_eventID",
                    "type": "uint256"
                }
            ],
            "name": "mintNFT",
            "outputs": [],
            "stateMutability": "nonpayable",
            "type": "function"
        },
        {
            "inputs": [
                {
                    "internalType": "address",
                    "name": "operator",
                    "type": "address"
                },
                {
                    "internalType": "address",
                    "name": "from",
                    "type": "address"
                },
                {
                    "internalType": "uint256[]",
                    "name": "ids",
                    "type": "uint256[]"
                },
                {
                    "internalType": "uint256[]",
                    "name": "values",
                    "type": "uint256[]"
                },
                {
                    "internalType": "bytes",
                    "name": "data",
                    "type": "bytes"
                }
            ],
            "name": "onERC1155BatchReceived",
            "outputs": [
                {
                    "internalType": "bytes4",
                    "name": "",
                    "type": "bytes4"
                }
            ],
            "stateMutability": "nonpayable",
            "type": "function"
        },
        {
            "inputs": [
                {
                    "internalType": "address",
                    "name": "operator",
                    "type": "address"
                },
                {
                    "internalType": "address",
                    "name": "from",
                    "type": "address"
                },
                {
                    "internalType": "uint256",
                    "name": "id",
                    "type": "uint256"
                },
                {
                    "internalType": "uint256",
                    "name": "value",
                    "type": "uint256"
                },
                {
                    "internalType": "bytes",
                    "name": "data",
                    "type": "bytes"
                }
            ],
            "name": "onERC1155Received",
            "outputs": [
                {
                    "internalType": "bytes4",
                    "name": "",
                    "type": "bytes4"
                }
            ],
            "stateMutability": "nonpayable",
            "type": "function"
        },
        {
            "inputs": [],
            "name": "owner",
            "outputs": [
                {
                    "internalType": "address",
                    "name": "",
                    "type": "address"
                }
            ],
            "stateMutability": "view",
            "type": "function"
        },
        {
            "inputs": [
                {
                    "internalType": "uint256",
                    "name": "_eventID",
                    "type": "uint256"
                },
                {
                    "internalType": "uint256",
                    "name": "_amount",
                    "type": "uint256"
                }
            ],
            "name": "payRespects",
            "outputs": [],
            "stateMutability": "nonpayable",
            "type": "function"
        },
        {
            "inputs": [],
            "name": "renounceOwnership",
            "outputs": [],
            "stateMutability": "nonpayable",
            "type": "function"
        },
        {
            "inputs": [
                {
                    "internalType": "address",
                    "name": "from",
                    "type": "address"
                },
                {
                    "internalType": "address",
                    "name": "to",
                    "type": "address"
                },
                {
                    "internalType": "uint256[]",
                    "name": "ids",
                    "type": "uint256[]"
                },
                {
                    "internalType": "uint256[]",
                    "name": "values",
                    "type": "uint256[]"
                },
                {
                    "internalType": "bytes",
                    "name": "data",
                    "type": "bytes"
                }
            ],
            "name": "safeBatchTransferFrom",
            "outputs": [],
            "stateMutability": "nonpayable",
            "type": "function"
        },
        {
            "inputs": [
                {
                    "internalType": "address",
                    "name": "from",
                    "type": "address"
                },
                {
                    "internalType": "address",
                    "name": "to",
                    "type": "address"
                },
                {
                    "internalType": "uint256",
                    "name": "id",
                    "type": "uint256"
                },
                {
                    "internalType": "uint256",
                    "name": "value",
                    "type": "uint256"
                },
                {
                    "internalType": "bytes",
                    "name": "data",
                    "type": "bytes"
                }
            ],
            "name": "safeTransferFrom",
            "outputs": [],
            "stateMutability": "nonpayable",
            "type": "function"
        },
        {
            "inputs": [
                {
                    "internalType": "address",
                    "name": "operator",
                    "type": "address"
                },
                {
                    "internalType": "bool",
                    "name": "approved",
                    "type": "bool"
                }
            ],
            "name": "setApprovalForAll",
            "outputs": [],
            "stateMutability": "nonpayable",
            "type": "function"
        },
        {
            "inputs": [
                {
                    "internalType": "string",
                    "name": "newuri",
                    "type": "string"
                }
            ],
            "name": "setURI",
            "outputs": [],
            "stateMutability": "nonpayable",
            "type": "function"
        },
        {
            "inputs": [
                {
                    "internalType": "string",
                    "name": "_Name",
                    "type": "string"
                },
                {
                    "internalType": "string",
                    "name": "_NFTURI",
                    "type": "string"
                },
                {
                    "internalType": "uint256",
                    "name": "_minutes",
                    "type": "uint256"
                },
                {
                    "internalType": "uint256",
                    "name": "_MinimumTip",
                    "type": "uint256"
                }
            ],
            "name": "startEvent",
            "outputs": [],
            "stateMutability": "nonpayable",
            "type": "function"
        },
        {
            "inputs": [
                {
                    "internalType": "bytes4",
                    "name": "interfaceId",
                    "type": "bytes4"
                }
            ],
            "name": "supportsInterface",
            "outputs": [
                {
                    "internalType": "bool",
                    "name": "",
                    "type": "bool"
                }
            ],
            "stateMutability": "view",
            "type": "function"
        },
        {
            "inputs": [],
            "name": "takeprofits",
            "outputs": [],
            "stateMutability": "nonpayable",
            "type": "function"
        },
        {
            "inputs": [],
            "name": "totalSupply",
            "outputs": [
                {
                    "internalType": "uint256",
                    "name": "",
                    "type": "uint256"
                }
            ],
            "stateMutability": "view",
            "type": "function"
        },
        {
            "inputs": [
                {
                    "internalType": "uint256",
                    "name": "id",
                    "type": "uint256"
                }
            ],
            "name": "totalSupply",
            "outputs": [
                {
                    "internalType": "uint256",
                    "name": "",
                    "type": "uint256"
                }
            ],
            "stateMutability": "view",
            "type": "function"
        },
        {
            "inputs": [
                {
                    "internalType": "address",
                    "name": "newOwner",
                    "type": "address"
                }
            ],
            "name": "transferOwnership",
            "outputs": [],
            "stateMutability": "nonpayable",
            "type": "function"
        },
        {
            "inputs": [
                {
                    "internalType": "uint256",
                    "name": "_eventID",
                    "type": "uint256"
                }
            ],
            "name": "uri",
            "outputs": [
                {
                    "internalType": "string",
                    "name": "",
                    "type": "string"
                }
            ],
            "stateMutability": "view",
            "type": "function"
        }
    ],
    "bytecode": "0x6080604052600960009054906101000a900473ffffffffffffffffffffffffffffffffffffffff16600660006101000a81548173ffffffffffffffffffffffffffffffffffffffff021916908373ffffffffffffffffffffffffffffffffffffffff16021790555060016008556001600a553480156200007e57600080fd5b50604051620058f0380380620058f08339818101604052810190620000a491906200045b565b3381620000b7816200018860201b60201c565b50600073ffffffffffffffffffffffffffffffffffffffff168173ffffffffffffffffffffffffffffffffffffffff16036200012d5760006040517f1e4fbdf7000000000000000000000000000000000000000000000000000000008152600401620001249190620004d2565b60405180910390fd5b6200013e816200019d60201b60201c565b5081600960006101000a81548173ffffffffffffffffffffffffffffffffffffffff021916908373ffffffffffffffffffffffffffffffffffffffff160217905550505062000821565b80600290816200019991906200073a565b5050565b6000600360009054906101000a900473ffffffffffffffffffffffffffffffffffffffff16905081600360006101000a81548173ffffffffffffffffffffffffffffffffffffffff021916908373ffffffffffffffffffffffffffffffffffffffff1602179055508173ffffffffffffffffffffffffffffffffffffffff168173ffffffffffffffffffffffffffffffffffffffff167f8be0079c531659141344cd1fd0a4f28419497f9722a3daafe3b4186f6b6457e060405160405180910390a35050565b6000604051905090565b600080fd5b600080fd5b600073ffffffffffffffffffffffffffffffffffffffff82169050919050565b6000620002a48262000277565b9050919050565b620002b68162000297565b8114620002c257600080fd5b50565b600081519050620002d681620002ab565b92915050565b600080fd5b600080fd5b6000601f19601f8301169050919050565b7f4e487b7100000000000000000000000000000000000000000000000000000000600052604160045260246000fd5b6200033182620002e6565b810181811067ffffffffffffffff82111715620003535762000352620002f7565b5b80604052505050565b60006200036862000263565b905062000376828262000326565b919050565b600067ffffffffffffffff821115620003995762000398620002f7565b5b620003a482620002e6565b9050602081019050919050565b60005b83811015620003d1578082015181840152602081019050620003b4565b60008484015250505050565b6000620003f4620003ee846200037b565b6200035c565b905082815260208101848484011115620004135762000412620002e1565b5b62000420848285620003b1565b509392505050565b600082601f83011262000440576200043f620002dc565b5b815162000452848260208601620003dd565b91505092915050565b600080604083850312156200047557620004746200026d565b5b60006200048585828601620002c5565b925050602083015167ffffffffffffffff811115620004a957620004a862000272565b5b620004b78582860162000428565b9150509250929050565b620004cc8162000297565b82525050565b6000602082019050620004e96000830184620004c1565b92915050565b600081519050919050565b7f4e487b7100000000000000000000000000000000000000000000000000000000600052602260045260246000fd5b600060028204905060018216806200054257607f821691505b602082108103620005585762000557620004fa565b5b50919050565b60008190508160005260206000209050919050565b60006020601f8301049050919050565b600082821b905092915050565b600060088302620005c27fffffffffffffffffffffffffffffffffffffffffffffffffffffffffffffffff8262000583565b620005ce868362000583565b95508019841693508086168417925050509392505050565b6000819050919050565b6000819050919050565b60006200061b620006156200060f84620005e6565b620005f0565b620005e6565b9050919050565b6000819050919050565b6200063783620005fa565b6200064f620006468262000622565b84845462000590565b825550505050565b600090565b6200066662000657565b620006738184846200062c565b505050565b5b818110156200069b576200068f6000826200065c565b60018101905062000679565b5050565b601f821115620006ea57620006b4816200055e565b620006bf8462000573565b81016020851015620006cf578190505b620006e7620006de8562000573565b83018262000678565b50505b505050565b600082821c905092915050565b60006200070f60001984600802620006ef565b1980831691505092915050565b60006200072a8383620006fc565b9150826002028217905092915050565b6200074582620004ef565b67ffffffffffffffff811115620007615762000760620002f7565b5b6200076d825462000529565b6200077a8282856200069f565b600060209050601f831160018114620007b257600084156200079d578287015190505b620007a985826200071c565b86555062000819565b601f198416620007c2866200055e565b60005b82811015620007ec57848901518255600182019150602085019450602081019050620007c5565b868310156200080c578489015162000808601f891682620006fc565b8355505b6001600288020188555050505b505050505050565b6150bf80620008316000396000f3fe608060405234801561001057600080fd5b50600436106101fa5760003560e01c80634f558e791161011a578063b704a5c5116100ad578063e985e9c51161007c578063e985e9c5146105c4578063f23a6e61146105f4578063f242432a14610624578063f2fde38b14610640578063f5298aca1461065c576101fa565b8063b704a5c51461053e578063bc197c811461055a578063bd85b0391461058a578063e234a832146105ba576101fa565b806392642744116100e957806392642744146104cc5780639858befb146104e8578063a22cb46514610506578063a316a59514610522576101fa565b80634f558e79146104585780636b20c45414610488578063715018a6146104a45780638da5cb5b146104ae576101fa565b80631f7fdffa1161019257806336a525a41161016157806336a525a4146103d25780634504f8b31461040257806349be2cd91461040c5780634e1273f414610428576101fa565b80631f7fdffa146103605780632eaee35e1461037c5780632eb2c2d61461039a578063330a347b146103b6576101fa565b80630b791430116101ce5780630b791430146102ab5780630bb78ec1146102e25780630e89341c1461031257806318160ddd14610342576101fa565b8062fdd58e146101ff57806301ffc9a71461022f57806302fe53051461025f578063037807331461027b575b600080fd5b6102196004803603810190610214919061334d565b610678565b604051610226919061339c565b60405180910390f35b6102496004803603810190610244919061340f565b6106d2565b6040516102569190613457565b60405180910390f35b610279600480360381019061027491906135b8565b6107b4565b005b61029560048036038101906102909190613601565b6107c8565b6040516102a29190613457565b60405180910390f35b6102c560048036038101906102c09190613641565b6107f7565b6040516102d99897969594939291906136fc565b60405180910390f35b6102fc60048036038101906102f79190613641565b61097c565b6040516103099190613788565b60405180910390f35b61032c60048036038101906103279190613641565b610a1c565b6040516103399190613788565b60405180910390f35b61034a610afa565b604051610357919061339c565b60405180910390f35b61037a60048036038101906103759190613913565b610b04565b005b610384610b1e565b60405161039191906139ce565b60405180910390f35b6103b460048036038101906103af91906139e9565b610b44565b005b6103d060048036038101906103cb9190613641565b610bec565b005b6103ec60048036038101906103e79190613ab8565b610f94565b6040516103f9919061339c565b60405180910390f35b61040a610fac565b005b61042660048036038101906104219190613641565b61111d565b005b610442600480360381019061043d9190613ba8565b61126f565b60405161044f9190613cde565b60405180910390f35b610472600480360381019061046d9190613641565b61137e565b60405161047f9190613457565b60405180910390f35b6104a2600480360381019061049d9190613d00565b611392565b005b6104ac61143e565b005b6104b6611452565b6040516104c391906139ce565b60405180910390f35b6104e660048036038101906104e19190613641565b61147c565b005b6104f0611742565b6040516104fd919061339c565b60405180910390f35b610520600480360381019061051b9190613db7565b611748565b005b61053c60048036038101906105379190613df7565b61175e565b005b61055860048036038101906105539190613e92565b6119a0565b005b610574600480360381019061056f9190613fe5565b611bdd565b60405161058191906140d0565b60405180910390f35b6105a4600480360381019061059f9190613641565b611c70565b6040516105b1919061339c565b60405180910390f35b6105c2611c8d565b005b6105de60048036038101906105d991906140eb565b611d8c565b6040516105eb9190613457565b60405180910390f35b61060e6004803603810190610609919061412b565b611e20565b60405161061b91906140d0565b60405180910390f35b61063e600480360381019061063991906141c5565b611e78565b005b61065a60048036038101906106559190613ab8565b611f20565b005b6106766004803603810190610671919061425c565b611fa6565b005b600080600083815260200190815260200160002060008473ffffffffffffffffffffffffffffffffffffffff1673ffffffffffffffffffffffffffffffffffffffff16815260200190815260200160002054905092915050565b60007fd9b67a26000000000000000000000000000000000000000000000000000000007bffffffffffffffffffffffffffffffffffffffffffffffffffffffff1916827bffffffffffffffffffffffffffffffffffffffffffffffffffffffff1916148061079d57507f0e89341c000000000000000000000000000000000000000000000000000000007bffffffffffffffffffffffffffffffffffffffffffffffffffffffff1916827bffffffffffffffffffffffffffffffffffffffffffffffffffffffff1916145b806107ad57506107ac82612052565b5b9050919050565b6107bc6120bc565b6107c581612143565b50565b600e6020528160005260406000206020528060005260406000206000915091509054906101000a900460ff1681565b600d60205280600052604060002060009150905080600001805461081a906142de565b80601f0160208091040260200160405190810160405280929190818152602001828054610846906142de565b80156108935780601f1061086857610100808354040283529160200191610893565b820191906000526020600020905b81548152906001019060200180831161087657829003601f168201915b5050505050908060010160009054906101000a900473ffffffffffffffffffffffffffffffffffffffff16908060020154908060030154908060040160009054906101000a900460ff16908060050180546108ed906142de565b80601f0160208091040260200160405190810160405280929190818152602001828054610919906142de565b80156109665780601f1061093b57610100808354040283529160200191610966565b820191906000526020600020905b81548152906001019060200180831161094957829003601f168201915b5050505050908060060154908060080154905088565b600b602052806000526040600020600091509050805461099b906142de565b80601f01602080910402602001604051908101604052809291908181526020018280546109c7906142de565b8015610a145780601f106109e957610100808354040283529160200191610a14565b820191906000526020600020905b8154815290600101906020018083116109f757829003601f168201915b505050505081565b60606000600b60008481526020019081526020016000208054610a3e906142de565b90501115610ae957600b60008381526020019081526020016000208054610a64906142de565b80601f0160208091040260200160405190810160405280929190818152602001828054610a90906142de565b8015610add5780601f10610ab257610100808354040283529160200191610add565b820191906000526020600020905b815481529060010190602001808311610ac057829003601f168201915b50505050509050610af5565b610af282612156565b90505b919050565b6000600554905090565b610b0c6120bc565b610b18848484846121ea565b50505050565b600960009054906101000a900473ffffffffffffffffffffffffffffffffffffffff1681565b6000610b4e612270565b90508073ffffffffffffffffffffffffffffffffffffffff168673ffffffffffffffffffffffffffffffffffffffff1614158015610b935750610b918682611d8c565b155b15610bd75780866040517fe237d922000000000000000000000000000000000000000000000000000000008152600401610bce92919061430f565b60405180910390fd5b610be48686868686612278565b505050505050565b603c600d600083815260200190815260200160002060020154610c0f9190614367565b600d600083815260200190815260200160002060030154610c3091906143a9565b421015610c72576040517f08c379a0000000000000000000000000000000000000000000000000000000008152600401610c6990614429565b60405180910390fd5b60001515600d600083815260200190815260200160002060040160009054906101000a900460ff16151514610cdc576040517f08c379a0000000000000000000000000000000000000000000000000000000008152600401610cd390614495565b60405180910390fd5b6001600d600083815260200190815260200160002060040160006101000a81548160ff021916908315150217905550600060646008546061600d600086815260200190815260200160002060060154610d359190614367565b610d3f91906144e4565b610d4991906144e4565b90506000600854600d600085815260200190815260200160002060060154610d7191906144e4565b90508181610d7f9190614515565b60078190555081600c6000600d600087815260200190815260200160002060010160009054906101000a900473ffffffffffffffffffffffffffffffffffffffff1673ffffffffffffffffffffffffffffffffffffffff1673ffffffffffffffffffffffffffffffffffffffff16815260200190815260200160002054610e0691906143a9565b600c6000600d600087815260200190815260200160002060010160009054906101000a900473ffffffffffffffffffffffffffffffffffffffff1673ffffffffffffffffffffffffffffffffffffffff1673ffffffffffffffffffffffffffffffffffffffff16815260200190815260200160002081905550610ea1306000600d600087815260200190815260200160002060060154612370565b610ef3600d600085815260200190815260200160002060010160009054906101000a900473ffffffffffffffffffffffffffffffffffffffff1684600160405180602001604052806000815250612417565b600d600084815260200190815260200160002060010160009054906101000a900473ffffffffffffffffffffffffffffffffffffffff1673ffffffffffffffffffffffffffffffffffffffff167fa0441962c292676f801248e4c11ee634330cd2cbcecc6a0b7f61fad55707d1e184600d600087815260200190815260200160002060060154604051610f87929190614549565b60405180910390a2505050565b600c6020528060005260406000206000915090505481565b6000600c60003373ffffffffffffffffffffffffffffffffffffffff1673ffffffffffffffffffffffffffffffffffffffff1681526020019081526020016000205490506000600c60003373ffffffffffffffffffffffffffffffffffffffff1673ffffffffffffffffffffffffffffffffffffffff168152602001908152602001600020819055506000600960009054906101000a900473ffffffffffffffffffffffffffffffffffffffff1673ffffffffffffffffffffffffffffffffffffffff1663a9059cbb33846040518363ffffffff1660e01b8152600401611094929190614572565b6020604051808303816000875af11580156110b3573d6000803e3d6000fd5b505050506040513d601f19601f820116820180604052508101906110d791906145b0565b905080611119576040517f08c379a000000000000000000000000000000000000000000000000000000000815260040161111090614629565b60405180910390fd5b5050565b60006008548261112d9190614367565b90506000600960009054906101000a900473ffffffffffffffffffffffffffffffffffffffff1673ffffffffffffffffffffffffffffffffffffffff166323b872dd3330856040518463ffffffff1660e01b815260040161119093929190614649565b6020604051808303816000875af11580156111af573d6000803e3d6000fd5b505050506040513d601f19601f820116820180604052508101906111d391906145b0565b905080611215576040517f08c379a000000000000000000000000000000000000000000000000000000000815260040161120c906146cc565b60405180910390fd5b6112313360008560405180602001604052806000815250612417565b7f3e8c2ff71ab8d4da451571727a6996326cebed05b214e568b8ba1015d290016c3384604051611262929190614572565b60405180910390a1505050565b606081518351146112bb57815183516040517f5b0599910000000000000000000000000000000000000000000000000000000081526004016112b2929190614549565b60405180910390fd5b6000835167ffffffffffffffff8111156112d8576112d761348d565b5b6040519080825280602002602001820160405280156113065781602001602082028036833780820191505090505b50905060005b84518110156113735761134361132b828761242990919063ffffffff16565b61133e838761243d90919063ffffffff16565b610678565b828281518110611356576113556146ec565b5b6020026020010181815250508061136c9061471b565b905061130c565b508091505092915050565b60008061138a83611c70565b119050919050565b61139a612270565b73ffffffffffffffffffffffffffffffffffffffff168373ffffffffffffffffffffffffffffffffffffffff16141580156113e357506113e1836113dc612270565b611d8c565b155b1561142e576113f0612270565b836040517fe237d92200000000000000000000000000000000000000000000000000000000815260040161142592919061430f565b60405180910390fd5b611439838383612451565b505050565b6114466120bc565b61145060006124e5565b565b6000600360009054906101000a900473ffffffffffffffffffffffffffffffffffffffff16905090565b806000805b600d600084815260200190815260200160002060070180549050811015611543573373ffffffffffffffffffffffffffffffffffffffff16600d600085815260200190815260200160002060070182815481106114e1576114e06146ec565b5b9060005260206000200160009054906101000a900473ffffffffffffffffffffffffffffffffffffffff1673ffffffffffffffffffffffffffffffffffffffff16036115305760019150611543565b808061153b9061471b565b915050611481565b5080611584576040517f08c379a000000000000000000000000000000000000000000000000000000000815260040161157b906147af565b60405180910390fd5b60011515600d600085815260200190815260200160002060040160009054906101000a900460ff161515146115ee576040517f08c379a00000000000000000000000000000000000000000000000000000000081526004016115e590614429565b60405180910390fd5b60001515600e600085815260200190815260200160002060003373ffffffffffffffffffffffffffffffffffffffff1673ffffffffffffffffffffffffffffffffffffffff16815260200190815260200160002060009054906101000a900460ff16151514611692576040517f08c379a00000000000000000000000000000000000000000000000000000000081526004016116899061481b565b60405180910390fd5b6116d4338460016040518060400160405280600381526020017f3078300000000000000000000000000000000000000000000000000000000000815250612417565b6001600e600085815260200190815260200160002060003373ffffffffffffffffffffffffffffffffffffffff1673ffffffffffffffffffffffffffffffffffffffff16815260200190815260200160002060006101000a81548160ff021916908315150217905550505050565b60075481565b61175a611753612270565b83836125ab565b5050565b603c600d6000848152602001908152602001600020600201546117819190614367565b600d6000848152602001908152602001600020600301546117a291906143a9565b42106117e3576040517f08c379a00000000000000000000000000000000000000000000000000000000081526004016117da906148ad565b60405180910390fd5b60001515600d600084815260200190815260200160002060040160009054906101000a900460ff1615151461184d576040517f08c379a000000000000000000000000000000000000000000000000000000000815260040161184490614495565b60405180910390fd5b600d6000838152602001908152602001600020600801548110156118a6576040517f08c379a000000000000000000000000000000000000000000000000000000000815260040161189d90614919565b60405180910390fd5b6118e933306000846040518060400160405280600381526020017f3078300000000000000000000000000000000000000000000000000000000000815250611e78565b80600d60008481526020019081526020016000206006015461190b91906143a9565b600d600084815260200190815260200160002060060181905550600d6000838152602001908152602001600020600701339080600181540180825580915050600190039060005260206000200160009091909190916101000a81548173ffffffffffffffffffffffffffffffffffffffff021916908373ffffffffffffffffffffffffffffffffffffffff1602179055505050565b6127608211156119e5576040517f08c379a00000000000000000000000000000000000000000000000000000000081526004016119dc90614985565b60405180910390fd5b60008111611a28576040517f08c379a0000000000000000000000000000000000000000000000000000000008152600401611a1f90614a17565b60405180910390fd5b6000600a5490508686600d60008481526020019081526020016000206000019182611a54929190614bee565b508484600d60008481526020019081526020016000206005019182611a7a929190614bee565b5082600d60008381526020019081526020016000206002018190555033600d600083815260200190815260200160002060010160006101000a81548173ffffffffffffffffffffffffffffffffffffffff021916908373ffffffffffffffffffffffffffffffffffffffff16021790555042600d60008381526020019081526020016000206003018190555081600d600083815260200190815260200160002060080181905550611b6f8186868080601f016020809104026020016040519081016040528093929190818152602001838380828437600081840152601f19601f8201169050808301925050505050505061271b565b6001600a54611b7e91906143a9565b600a819055503373ffffffffffffffffffffffffffffffffffffffff167ff22cae70e607af6996dd06272ccfe2798b3599892d6b5ba8c39f05ac351555688285604051611bcc929190614549565b60405180910390a250505050505050565b6000600187879050148015611bf55750600185859050145b8015611c1b5750600087876000818110611c1257611c116146ec565b5b90506020020135145b611c5a576040517f08c379a0000000000000000000000000000000000000000000000000000000008152600401611c5190614d30565b60405180910390fd5b63bc197c8160e01b905098975050505050505050565b600060046000838152602001908152602001600020549050919050565b611c956120bc565b6000600754905060006007819055506000600960009054906101000a900473ffffffffffffffffffffffffffffffffffffffff1673ffffffffffffffffffffffffffffffffffffffff1663a9059cbb33846040518363ffffffff1660e01b8152600401611d03929190614572565b6020604051808303816000875af1158015611d22573d6000803e3d6000fd5b505050506040513d601f19601f82011682018060405250810190611d4691906145b0565b905080611d88576040517f08c379a0000000000000000000000000000000000000000000000000000000008152600401611d7f90614629565b60405180910390fd5b5050565b6000600160008473ffffffffffffffffffffffffffffffffffffffff1673ffffffffffffffffffffffffffffffffffffffff16815260200190815260200160002060008373ffffffffffffffffffffffffffffffffffffffff1673ffffffffffffffffffffffffffffffffffffffff16815260200190815260200160002060009054906101000a900460ff16905092915050565b6000808514611e64576040517f08c379a0000000000000000000000000000000000000000000000000000000008152600401611e5b90614dc2565b60405180910390fd5b63f23a6e6160e01b90509695505050505050565b6000611e82612270565b90508073ffffffffffffffffffffffffffffffffffffffff168673ffffffffffffffffffffffffffffffffffffffff1614158015611ec75750611ec58682611d8c565b155b15611f0b5780866040517fe237d922000000000000000000000000000000000000000000000000000000008152600401611f0292919061430f565b60405180910390fd5b611f188686868686612740565b505050505050565b611f286120bc565b600073ffffffffffffffffffffffffffffffffffffffff168173ffffffffffffffffffffffffffffffffffffffff1603611f9a5760006040517f1e4fbdf7000000000000000000000000000000000000000000000000000000008152600401611f9191906139ce565b60405180910390fd5b611fa3816124e5565b50565b611fae612270565b73ffffffffffffffffffffffffffffffffffffffff168373ffffffffffffffffffffffffffffffffffffffff1614158015611ff75750611ff583611ff0612270565b611d8c565b155b1561204257612004612270565b836040517fe237d92200000000000000000000000000000000000000000000000000000000815260040161203992919061430f565b60405180910390fd5b61204d838383612370565b505050565b60007f01ffc9a7000000000000000000000000000000000000000000000000000000007bffffffffffffffffffffffffffffffffffffffffffffffffffffffff1916827bffffffffffffffffffffffffffffffffffffffffffffffffffffffff1916149050919050565b6120c4612270565b73ffffffffffffffffffffffffffffffffffffffff166120e2611452565b73ffffffffffffffffffffffffffffffffffffffff161461214157612105612270565b6040517f118cdaa700000000000000000000000000000000000000000000000000000000815260040161213891906139ce565b60405180910390fd5b565b80600290816121529190614de2565b5050565b606060028054612165906142de565b80601f0160208091040260200160405190810160405280929190818152602001828054612191906142de565b80156121de5780601f106121b3576101008083540402835291602001916121de565b820191906000526020600020905b8154815290600101906020018083116121c157829003601f168201915b50505050509050919050565b600073ffffffffffffffffffffffffffffffffffffffff168473ffffffffffffffffffffffffffffffffffffffff160361225c5760006040517f57f447ce00000000000000000000000000000000000000000000000000000000815260040161225391906139ce565b60405180910390fd5b61226a60008585858561284b565b50505050565b600033905090565b600073ffffffffffffffffffffffffffffffffffffffff168473ffffffffffffffffffffffffffffffffffffffff16036122ea5760006040517f57f447ce0000000000000000000000000000000000000000000000000000000081526004016122e191906139ce565b60405180910390fd5b600073ffffffffffffffffffffffffffffffffffffffff168573ffffffffffffffffffffffffffffffffffffffff160361235c5760006040517f01a8351400000000000000000000000000000000000000000000000000000000815260040161235391906139ce565b60405180910390fd5b612369858585858561284b565b5050505050565b600073ffffffffffffffffffffffffffffffffffffffff168373ffffffffffffffffffffffffffffffffffffffff16036123e25760006040517f01a835140000000000000000000000000000000000000000000000000000000081526004016123d991906139ce565b60405180910390fd5b6000806123ef84846128fd565b9150915061241085600084846040518060200160405280600081525061284b565b5050505050565b6124238484848461292d565b50505050565b600060208202602084010151905092915050565b600060208202602084010151905092915050565b600073ffffffffffffffffffffffffffffffffffffffff168373ffffffffffffffffffffffffffffffffffffffff16036124c35760006040517f01a835140000000000000000000000000000000000000000000000000000000081526004016124ba91906139ce565b60405180910390fd5b6124e083600084846040518060200160405280600081525061284b565b505050565b6000600360009054906101000a900473ffffffffffffffffffffffffffffffffffffffff16905081600360006101000a81548173ffffffffffffffffffffffffffffffffffffffff021916908373ffffffffffffffffffffffffffffffffffffffff1602179055508173ffffffffffffffffffffffffffffffffffffffff168173ffffffffffffffffffffffffffffffffffffffff167f8be0079c531659141344cd1fd0a4f28419497f9722a3daafe3b4186f6b6457e060405160405180910390a35050565b600073ffffffffffffffffffffffffffffffffffffffff168273ffffffffffffffffffffffffffffffffffffffff160361261d5760006040517fced3e10000000000000000000000000000000000000000000000000000000000815260040161261491906139ce565b60405180910390fd5b80600160008573ffffffffffffffffffffffffffffffffffffffff1673ffffffffffffffffffffffffffffffffffffffff16815260200190815260200160002060008473ffffffffffffffffffffffffffffffffffffffff1673ffffffffffffffffffffffffffffffffffffffff16815260200190815260200160002060006101000a81548160ff0219169083151502179055508173ffffffffffffffffffffffffffffffffffffffff168373ffffffffffffffffffffffffffffffffffffffff167f17307eab39ab6107e8899845ad3d59bd9653f200f220920489ca2b5937696c318360405161270e9190613457565b60405180910390a3505050565b80600b6000848152602001908152602001600020908161273b9190614de2565b505050565b600073ffffffffffffffffffffffffffffffffffffffff168473ffffffffffffffffffffffffffffffffffffffff16036127b25760006040517f57f447ce0000000000000000000000000000000000000000000000000000000081526004016127a991906139ce565b60405180910390fd5b600073ffffffffffffffffffffffffffffffffffffffff168573ffffffffffffffffffffffffffffffffffffffff16036128245760006040517f01a8351400000000000000000000000000000000000000000000000000000000815260040161281b91906139ce565b60405180910390fd5b60008061283185856128fd565b91509150612842878784848761284b565b50505050505050565b612857858585856129c6565b600073ffffffffffffffffffffffffffffffffffffffff168473ffffffffffffffffffffffffffffffffffffffff16146128f6576000612895612270565b905060018451036128e55760006128b660008661243d90919063ffffffff16565b905060006128ce60008661243d90919063ffffffff16565b90506128de8389898585896129d8565b50506128f4565b6128f3818787878787612b8c565b5b505b5050505050565b60608060405191506001825283602083015260408201905060018152826020820152604081016040529250929050565b600073ffffffffffffffffffffffffffffffffffffffff168473ffffffffffffffffffffffffffffffffffffffff160361299f5760006040517f57f447ce00000000000000000000000000000000000000000000000000000000815260040161299691906139ce565b60405180910390fd5b6000806129ac85856128fd565b915091506129be60008784848761284b565b505050505050565b6129d284848484612d40565b50505050565b60008473ffffffffffffffffffffffffffffffffffffffff163b1115612b84578373ffffffffffffffffffffffffffffffffffffffff1663f23a6e6187878686866040518663ffffffff1660e01b8152600401612a39959493929190614f09565b6020604051808303816000875af1925050508015612a7557506040513d601f19601f82011682018060405250810190612a729190614f78565b60015b612af9573d8060008114612aa5576040519150601f19603f3d011682016040523d82523d6000602084013e612aaa565b606091505b506000815103612af157846040517f57f447ce000000000000000000000000000000000000000000000000000000008152600401612ae891906139ce565b60405180910390fd5b805181602001fd5b63f23a6e6160e01b7bffffffffffffffffffffffffffffffffffffffffffffffffffffffff1916817bffffffffffffffffffffffffffffffffffffffffffffffffffffffff191614612b8257846040517f57f447ce000000000000000000000000000000000000000000000000000000008152600401612b7991906139ce565b60405180910390fd5b505b505050505050565b60008473ffffffffffffffffffffffffffffffffffffffff163b1115612d38578373ffffffffffffffffffffffffffffffffffffffff1663bc197c8187878686866040518663ffffffff1660e01b8152600401612bed959493929190614fa5565b6020604051808303816000875af1925050508015612c2957506040513d601f19601f82011682018060405250810190612c269190614f78565b60015b612cad573d8060008114612c59576040519150601f19603f3d011682016040523d82523d6000602084013e612c5e565b606091505b506000815103612ca557846040517f57f447ce000000000000000000000000000000000000000000000000000000008152600401612c9c91906139ce565b60405180910390fd5b805181602001fd5b63bc197c8160e01b7bffffffffffffffffffffffffffffffffffffffffffffffffffffffff1916817bffffffffffffffffffffffffffffffffffffffffffffffffffffffff191614612d3657846040517f57f447ce000000000000000000000000000000000000000000000000000000008152600401612d2d91906139ce565b60405180910390fd5b505b505050505050565b612d4c84848484612ef7565b600073ffffffffffffffffffffffffffffffffffffffff168473ffffffffffffffffffffffffffffffffffffffff1603612e2c576000805b8351811015612e10576000838281518110612da257612da16146ec565b5b602002602001015190508060046000878581518110612dc457612dc36146ec565b5b602002602001015181526020019081526020016000206000828254612de991906143a9565b925050819055508083612dfc91906143a9565b92505080612e099061471b565b9050612d84565b508060056000828254612e2391906143a9565b92505081905550505b600073ffffffffffffffffffffffffffffffffffffffff168373ffffffffffffffffffffffffffffffffffffffff1603612ef1576000805b8351811015612ede576000838281518110612e8257612e816146ec565b5b602002602001015190508060046000878581518110612ea457612ea36146ec565b5b602002602001015181526020019081526020016000206000828254039250508190555080830192505080612ed79061471b565b9050612e64565b5080600560008282540392505081905550505b50505050565b8051825114612f4157815181516040517f5b059991000000000000000000000000000000000000000000000000000000008152600401612f38929190614549565b60405180910390fd5b6000612f4b612270565b905060005b8351811015613160576000612f6e828661243d90919063ffffffff16565b90506000612f85838661243d90919063ffffffff16565b9050600073ffffffffffffffffffffffffffffffffffffffff168873ffffffffffffffffffffffffffffffffffffffff16146130b257600080600084815260200190815260200160002060008a73ffffffffffffffffffffffffffffffffffffffff1673ffffffffffffffffffffffffffffffffffffffff1681526020019081526020016000205490508181101561305a57888183856040517f03dee4c5000000000000000000000000000000000000000000000000000000008152600401613051949392919061500d565b60405180910390fd5b81810360008085815260200190815260200160002060008b73ffffffffffffffffffffffffffffffffffffffff1673ffffffffffffffffffffffffffffffffffffffff16815260200190815260200160002081905550505b600073ffffffffffffffffffffffffffffffffffffffff168773ffffffffffffffffffffffffffffffffffffffff161461314d578060008084815260200190815260200160002060008973ffffffffffffffffffffffffffffffffffffffff1673ffffffffffffffffffffffffffffffffffffffff168152602001908152602001600020600082825461314591906143a9565b925050819055505b5050806131599061471b565b9050612f50565b50600183510361321f57600061318060008561243d90919063ffffffff16565b9050600061319860008561243d90919063ffffffff16565b90508573ffffffffffffffffffffffffffffffffffffffff168773ffffffffffffffffffffffffffffffffffffffff168473ffffffffffffffffffffffffffffffffffffffff167fc3d58168c5ae7397731d063d5bbf3d657854427343f4c083240f7aacaa2d0f628585604051613210929190614549565b60405180910390a4505061329e565b8373ffffffffffffffffffffffffffffffffffffffff168573ffffffffffffffffffffffffffffffffffffffff168273ffffffffffffffffffffffffffffffffffffffff167f4a39dc06d4c0dbc64b70af90fd698a233a518aa5d07e595d983b8c0526c8f7fb8686604051613295929190615052565b60405180910390a45b5050505050565b6000604051905090565b600080fd5b600080fd5b600073ffffffffffffffffffffffffffffffffffffffff82169050919050565b60006132e4826132b9565b9050919050565b6132f4816132d9565b81146132ff57600080fd5b50565b600081359050613311816132eb565b92915050565b6000819050919050565b61332a81613317565b811461333557600080fd5b50565b60008135905061334781613321565b92915050565b60008060408385031215613364576133636132af565b5b600061337285828601613302565b925050602061338385828601613338565b9150509250929050565b61339681613317565b82525050565b60006020820190506133b1600083018461338d565b92915050565b60007fffffffff0000000000000000000000000000000000000000000000000000000082169050919050565b6133ec816133b7565b81146133f757600080fd5b50565b600081359050613409816133e3565b92915050565b600060208284031215613425576134246132af565b5b6000613433848285016133fa565b91505092915050565b60008115159050919050565b6134518161343c565b82525050565b600060208201905061346c6000830184613448565b92915050565b600080fd5b600080fd5b6000601f19601f8301169050919050565b7f4e487b7100000000000000000000000000000000000000000000000000000000600052604160045260246000fd5b6134c58261347c565b810181811067ffffffffffffffff821117156134e4576134e361348d565b5b80604052505050565b60006134f76132a5565b905061350382826134bc565b919050565b600067ffffffffffffffff8211156135235761352261348d565b5b61352c8261347c565b9050602081019050919050565b82818337600083830152505050565b600061355b61355684613508565b6134ed565b90508281526020810184848401111561357757613576613477565b5b613582848285613539565b509392505050565b600082601f83011261359f5761359e613472565b5b81356135af848260208601613548565b91505092915050565b6000602082840312156135ce576135cd6132af565b5b600082013567ffffffffffffffff8111156135ec576135eb6132b4565b5b6135f88482850161358a565b91505092915050565b60008060408385031215613618576136176132af565b5b600061362685828601613338565b925050602061363785828601613302565b9150509250929050565b600060208284031215613657576136566132af565b5b600061366584828501613338565b91505092915050565b600081519050919050565b600082825260208201905092915050565b60005b838110156136a857808201518184015260208101905061368d565b60008484015250505050565b60006136bf8261366e565b6136c98185613679565b93506136d981856020860161368a565b6136e28161347c565b840191505092915050565b6136f6816132d9565b82525050565b6000610100820190508181036000830152613717818b6136b4565b9050613726602083018a6136ed565b613733604083018961338d565b613740606083018861338d565b61374d6080830187613448565b81810360a083015261375f81866136b4565b905061376e60c083018561338d565b61377b60e083018461338d565b9998505050505050505050565b600060208201905081810360008301526137a281846136b4565b905092915050565b600067ffffffffffffffff8211156137c5576137c461348d565b5b602082029050602081019050919050565b600080fd5b60006137ee6137e9846137aa565b6134ed565b90508083825260208201905060208402830185811115613811576138106137d6565b5b835b8181101561383a57806138268882613338565b845260208401935050602081019050613813565b5050509392505050565b600082601f83011261385957613858613472565b5b81356138698482602086016137db565b91505092915050565b600067ffffffffffffffff82111561388d5761388c61348d565b5b6138968261347c565b9050602081019050919050565b60006138b66138b184613872565b6134ed565b9050828152602081018484840111156138d2576138d1613477565b5b6138dd848285613539565b509392505050565b600082601f8301126138fa576138f9613472565b5b813561390a8482602086016138a3565b91505092915050565b6000806000806080858703121561392d5761392c6132af565b5b600061393b87828801613302565b945050602085013567ffffffffffffffff81111561395c5761395b6132b4565b5b61396887828801613844565b935050604085013567ffffffffffffffff811115613989576139886132b4565b5b61399587828801613844565b925050606085013567ffffffffffffffff8111156139b6576139b56132b4565b5b6139c2878288016138e5565b91505092959194509250565b60006020820190506139e360008301846136ed565b92915050565b600080600080600060a08688031215613a0557613a046132af565b5b6000613a1388828901613302565b9550506020613a2488828901613302565b945050604086013567ffffffffffffffff811115613a4557613a446132b4565b5b613a5188828901613844565b935050606086013567ffffffffffffffff811115613a7257613a716132b4565b5b613a7e88828901613844565b925050608086013567ffffffffffffffff811115613a9f57613a9e6132b4565b5b613aab888289016138e5565b9150509295509295909350565b600060208284031215613ace57613acd6132af565b5b6000613adc84828501613302565b91505092915050565b600067ffffffffffffffff821115613b0057613aff61348d565b5b602082029050602081019050919050565b6000613b24613b1f84613ae5565b6134ed565b90508083825260208201905060208402830185811115613b4757613b466137d6565b5b835b81811015613b705780613b5c8882613302565b845260208401935050602081019050613b49565b5050509392505050565b600082601f830112613b8f57613b8e613472565b5b8135613b9f848260208601613b11565b91505092915050565b60008060408385031215613bbf57613bbe6132af565b5b600083013567ffffffffffffffff811115613bdd57613bdc6132b4565b5b613be985828601613b7a565b925050602083013567ffffffffffffffff811115613c0a57613c096132b4565b5b613c1685828601613844565b9150509250929050565b600081519050919050565b600082825260208201905092915050565b6000819050602082019050919050565b613c5581613317565b82525050565b6000613c678383613c4c565b60208301905092915050565b6000602082019050919050565b6000613c8b82613c20565b613c958185613c2b565b9350613ca083613c3c565b8060005b83811015613cd1578151613cb88882613c5b565b9750613cc383613c73565b925050600181019050613ca4565b5085935050505092915050565b60006020820190508181036000830152613cf88184613c80565b905092915050565b600080600060608486031215613d1957613d186132af565b5b6000613d2786828701613302565b935050602084013567ffffffffffffffff811115613d4857613d476132b4565b5b613d5486828701613844565b925050604084013567ffffffffffffffff811115613d7557613d746132b4565b5b613d8186828701613844565b9150509250925092565b613d948161343c565b8114613d9f57600080fd5b50565b600081359050613db181613d8b565b92915050565b60008060408385031215613dce57613dcd6132af565b5b6000613ddc85828601613302565b9250506020613ded85828601613da2565b9150509250929050565b60008060408385031215613e0e57613e0d6132af565b5b6000613e1c85828601613338565b9250506020613e2d85828601613338565b9150509250929050565b600080fd5b60008083601f840112613e5257613e51613472565b5b8235905067ffffffffffffffff811115613e6f57613e6e613e37565b5b602083019150836001820283011115613e8b57613e8a6137d6565b5b9250929050565b60008060008060008060808789031215613eaf57613eae6132af565b5b600087013567ffffffffffffffff811115613ecd57613ecc6132b4565b5b613ed989828a01613e3c565b9650965050602087013567ffffffffffffffff811115613efc57613efb6132b4565b5b613f0889828a01613e3c565b94509450506040613f1b89828a01613338565b9250506060613f2c89828a01613338565b9150509295509295509295565b60008083601f840112613f4f57613f4e613472565b5b8235905067ffffffffffffffff811115613f6c57613f6b613e37565b5b602083019150836020820283011115613f8857613f876137d6565b5b9250929050565b60008083601f840112613fa557613fa4613472565b5b8235905067ffffffffffffffff811115613fc257613fc1613e37565b5b602083019150836001820283011115613fde57613fdd6137d6565b5b9250929050565b60008060008060008060008060a0898b031215614005576140046132af565b5b60006140138b828c01613302565b98505060206140248b828c01613302565b975050604089013567ffffffffffffffff811115614045576140446132b4565b5b6140518b828c01613f39565b9650965050606089013567ffffffffffffffff811115614074576140736132b4565b5b6140808b828c01613f39565b9450945050608089013567ffffffffffffffff8111156140a3576140a26132b4565b5b6140af8b828c01613f8f565b92509250509295985092959890939650565b6140ca816133b7565b82525050565b60006020820190506140e560008301846140c1565b92915050565b60008060408385031215614102576141016132af565b5b600061411085828601613302565b925050602061412185828601613302565b9150509250929050565b60008060008060008060a08789031215614148576141476132af565b5b600061415689828a01613302565b965050602061416789828a01613302565b955050604061417889828a01613338565b945050606061418989828a01613338565b935050608087013567ffffffffffffffff8111156141aa576141a96132b4565b5b6141b689828a01613f8f565b92509250509295509295509295565b600080600080600060a086880312156141e1576141e06132af565b5b60006141ef88828901613302565b955050602061420088828901613302565b945050604061421188828901613338565b935050606061422288828901613338565b925050608086013567ffffffffffffffff811115614243576142426132b4565b5b61424f888289016138e5565b9150509295509295909350565b600080600060608486031215614275576142746132af565b5b600061428386828701613302565b935050602061429486828701613338565b92505060406142a586828701613338565b9150509250925092565b7f4e487b7100000000000000000000000000000000000000000000000000000000600052602260045260246000fd5b600060028204905060018216806142f657607f821691505b602082108103614309576143086142af565b5b50919050565b600060408201905061432460008301856136ed565b61433160208301846136ed565b9392505050565b7f4e487b7100000000000000000000000000000000000000000000000000000000600052601160045260246000fd5b600061437282613317565b915061437d83613317565b925082820261438b81613317565b915082820484148315176143a2576143a1614338565b5b5092915050565b60006143b482613317565b91506143bf83613317565b92508282019050808211156143d7576143d6614338565b5b92915050565b7f546865206576656e74206973207374696c6c206f6e676f696e67000000000000600082015250565b6000614413601a83613679565b915061441e826143dd565b602082019050919050565b6000602082019050818103600083015261444281614406565b9050919050565b7f4576656e742068617320656e6465640000000000000000000000000000000000600082015250565b600061447f600f83613679565b915061448a82614449565b602082019050919050565b600060208201905081810360008301526144ae81614472565b9050919050565b7f4e487b7100000000000000000000000000000000000000000000000000000000600052601260045260246000fd5b60006144ef82613317565b91506144fa83613317565b92508261450a576145096144b5565b5b828204905092915050565b600061452082613317565b915061452b83613317565b925082820390508181111561454357614542614338565b5b92915050565b600060408201905061455e600083018561338d565b61456b602083018461338d565b9392505050565b600060408201905061458760008301856136ed565b614594602083018461338d565b9392505050565b6000815190506145aa81613d8b565b92915050565b6000602082840312156145c6576145c56132af565b5b60006145d48482850161459b565b91505092915050565b7f4661696c656420746f2073656e6420444149207061796d656e74000000000000600082015250565b6000614613601a83613679565b915061461e826145dd565b602082019050919050565b6000602082019050818103600083015261464281614606565b9050919050565b600060608201905061465e60008301866136ed565b61466b60208301856136ed565b614678604083018461338d565b949350505050565b7f4661696c656420746f207265636569766520444149207061796d656e74000000600082015250565b60006146b6601d83613679565b91506146c182614680565b602082019050919050565b600060208201905081810360008301526146e5816146a9565b9050919050565b7f4e487b7100000000000000000000000000000000000000000000000000000000600052603260045260246000fd5b600061472682613317565b91507fffffffffffffffffffffffffffffffffffffffffffffffffffffffffffffffff820361475857614757614338565b5b600182019050919050565b7f596f7520617265206e6f742061206d656d6265722e0000000000000000000000600082015250565b6000614799601583613679565b91506147a482614763565b602082019050919050565b600060208201905081810360008301526147c88161478c565b9050919050565b7f596f75206861766520616c7265616479206d696e74656420796f7572204e4654600082015250565b6000614805602083613679565b9150614810826147cf565b602082019050919050565b60006020820190508181036000830152614834816147f8565b9050919050565b7f5468652074696d6520746f207061792072657370656374732068617320656e6460008201527f6564000000000000000000000000000000000000000000000000000000000000602082015250565b6000614897602283613679565b91506148a28261483b565b604082019050919050565b600060208201905081810360008301526148c68161488a565b9050919050565b7f546970206973206e6f74206c6172676520656e6f756768000000000000000000600082015250565b6000614903601783613679565b915061490e826148cd565b602082019050919050565b60006020820190508181036000830152614932816148f6565b9050919050565b7f4d6178696d756d206475726174696f6e2069732031207765656b000000000000600082015250565b600061496f601a83613679565b915061497a82614939565b602082019050919050565b6000602082019050818103600083015261499e81614962565b9050919050565b7f416d6f756e7420746f207061727469636970617465206d757374206265206c6160008201527f72676572207468616e2030000000000000000000000000000000000000000000602082015250565b6000614a01602b83613679565b9150614a0c826149a5565b604082019050919050565b60006020820190508181036000830152614a30816149f4565b9050919050565b600082905092915050565b60008190508160005260206000209050919050565b60006020601f8301049050919050565b600082821b905092915050565b600060088302614aa47fffffffffffffffffffffffffffffffffffffffffffffffffffffffffffffffff82614a67565b614aae8683614a67565b95508019841693508086168417925050509392505050565b6000819050919050565b6000614aeb614ae6614ae184613317565b614ac6565b613317565b9050919050565b6000819050919050565b614b0583614ad0565b614b19614b1182614af2565b848454614a74565b825550505050565b600090565b614b2e614b21565b614b39818484614afc565b505050565b5b81811015614b5d57614b52600082614b26565b600181019050614b3f565b5050565b601f821115614ba257614b7381614a42565b614b7c84614a57565b81016020851015614b8b578190505b614b9f614b9785614a57565b830182614b3e565b50505b505050565b600082821c905092915050565b6000614bc560001984600802614ba7565b1980831691505092915050565b6000614bde8383614bb4565b9150826002028217905092915050565b614bf88383614a37565b67ffffffffffffffff811115614c1157614c1061348d565b5b614c1b82546142de565b614c26828285614b61565b6000601f831160018114614c555760008415614c43578287013590505b614c4d8582614bd2565b865550614cb5565b601f198416614c6386614a42565b60005b82811015614c8b57848901358255600182019150602085019450602081019050614c66565b86831015614ca85784890135614ca4601f891682614bb4565b8355505b6001600288020188555050505b50505050505050565b7f5468697320636f6e7472616374206f6e6c7920737570706f727473204e46542060008201527f726563656976616c730000000000000000000000000000000000000000000000602082015250565b6000614d1a602983613679565b9150614d2582614cbe565b604082019050919050565b60006020820190508181036000830152614d4981614d0d565b9050919050565b7f5468697320636f6e747261637420646f6573206e6f7420737570706f7274204e60008201527f465420726563656976616c730000000000000000000000000000000000000000602082015250565b6000614dac602c83613679565b9150614db782614d50565b604082019050919050565b60006020820190508181036000830152614ddb81614d9f565b9050919050565b614deb8261366e565b67ffffffffffffffff811115614e0457614e0361348d565b5b614e0e82546142de565b614e19828285614b61565b600060209050601f831160018114614e4c5760008415614e3a578287015190505b614e448582614bd2565b865550614eac565b601f198416614e5a86614a42565b60005b82811015614e8257848901518255600182019150602085019450602081019050614e5d565b86831015614e9f5784890151614e9b601f891682614bb4565b8355505b6001600288020188555050505b505050505050565b600081519050919050565b600082825260208201905092915050565b6000614edb82614eb4565b614ee58185614ebf565b9350614ef581856020860161368a565b614efe8161347c565b840191505092915050565b600060a082019050614f1e60008301886136ed565b614f2b60208301876136ed565b614f38604083018661338d565b614f45606083018561338d565b8181036080830152614f578184614ed0565b90509695505050505050565b600081519050614f72816133e3565b92915050565b600060208284031215614f8e57614f8d6132af565b5b6000614f9c84828501614f63565b91505092915050565b600060a082019050614fba60008301886136ed565b614fc760208301876136ed565b8181036040830152614fd98186613c80565b90508181036060830152614fed8185613c80565b905081810360808301526150018184614ed0565b90509695505050505050565b600060808201905061502260008301876136ed565b61502f602083018661338d565b61503c604083018561338d565b615049606083018461338d565b95945050505050565b6000604082019050818103600083015261506c8185613c80565b905081810360208301526150808184613c80565b9050939250505056fea2646970667358221220c7d40f4b9a0c979423f91abe9e149318168347011d16a223ba6c2a50e545eb4164736f6c63430008140033",
    "linkReferences": {},
    "deployedLinkReferences": {}
}