{
  "_format": "hh-sol-artifact-1",
  "contractName": "FakeDAI",
  "sourceName": "contracts/FakeDai.sol",
  "abi": [
    {
      "inputs": [],
      "stateMutability": "nonpayable",
      "type": "constructor"
    },
    {
      "inputs": [
        {
          "internalType": "address",
          "name": "spender",
          "type": "address"
        },
        {
          "internalType": "uint256",
          "name": "allowance",
          "type": "uint256"
        },
        {
          "internalType": "uint256",
          "name": "needed",
          "type": "uint256"
        }
      ],
      "name": "ERC20InsufficientAllowance",
      "type": "error"
    },
    {
      "inputs": [
        {
          "internalType": "address",
          "name": "sender",
          "type": "address"
        },
        {
          "internalType": "uint256",
          "name": "balance",
          "type": "uint256"
        },
        {
          "internalType": "uint256",
          "name": "needed",
          "type": "uint256"
        }
      ],
      "name": "ERC20InsufficientBalance",
      "type": "error"
    },
    {
      "inputs": [
        {
          "internalType": "address",
          "name": "approver",
          "type": "address"
        }
      ],
      "name": "ERC20InvalidApprover",
      "type": "error"
    },
    {
      "inputs": [
        {
          "internalType": "address",
          "name": "receiver",
          "type": "address"
        }
      ],
      "name": "ERC20InvalidReceiver",
      "type": "error"
    },
    {
      "inputs": [
        {
          "internalType": "address",
          "name": "sender",
          "type": "address"
        }
      ],
      "name": "ERC20InvalidSender",
      "type": "error"
    },
    {
      "inputs": [
        {
          "internalType": "address",
          "name": "spender",
          "type": "address"
        }
      ],
      "name": "ERC20InvalidSpender",
      "type": "error"
    },
    {
      "anonymous": false,
      "inputs": [
        {
          "indexed": true,
          "internalType": "address",
          "name": "owner",
          "type": "address"
        },
        {
          "indexed": true,
          "internalType": "address",
          "name": "spender",
          "type": "address"
        },
        {
          "indexed": false,
          "internalType": "uint256",
          "name": "value",
          "type": "uint256"
        }
      ],
      "name": "Approval",
      "type": "event"
    },
    {
      "anonymous": false,
      "inputs": [
        {
          "indexed": true,
          "internalType": "address",
          "name": "from",
          "type": "address"
        },
        {
          "indexed": true,
          "internalType": "address",
          "name": "to",
          "type": "address"
        },
        {
          "indexed": false,
          "internalType": "uint256",
          "name": "value",
          "type": "uint256"
        }
      ],
      "name": "Transfer",
      "type": "event"
    },
    {
      "inputs": [
        {
          "internalType": "address",
          "name": "owner",
          "type": "address"
        },
        {
          "internalType": "address",
          "name": "spender",
          "type": "address"
        }
      ],
      "name": "allowance",
      "outputs": [
        {
          "internalType": "uint256",
          "name": "",
          "type": "uint256"
        }
      ],
      "stateMutability": "view",
      "type": "function"
    },
    {
      "inputs": [
        {
          "internalType": "address",
          "name": "spender",
          "type": "address"
        },
        {
          "internalType": "uint256",
          "name": "value",
          "type": "uint256"
        }
      ],
      "name": "approve",
      "outputs": [
        {
          "internalType": "bool",
          "name": "",
          "type": "bool"
        }
      ],
      "stateMutability": "nonpayable",
      "type": "function"
    },
    {
      "inputs": [
        {
          "internalType": "address",
          "name": "account",
          "type": "address"
        }
      ],
      "name": "balanceOf",
      "outputs": [
        {
          "internalType": "uint256",
          "name": "",
          "type": "uint256"
        }
      ],
      "stateMutability": "view",
      "type": "function"
    },
    {
      "inputs": [
        {
          "internalType": "uint256",
          "name": "value",
          "type": "uint256"
        }
      ],
      "name": "burn",
      "outputs": [],
      "stateMutability": "nonpayable",
      "type": "function"
    },
    {
      "inputs": [
        {
          "internalType": "address",
          "name": "account",
          "type": "address"
        },
        {
          "internalType": "uint256",
          "name": "value",
          "type": "uint256"
        }
      ],
      "name": "burnFrom",
      "outputs": [],
      "stateMutability": "nonpayable",
      "type": "function"
    },
    {
      "inputs": [],
      "name": "decimals",
      "outputs": [
        {
          "internalType": "uint8",
          "name": "",
          "type": "uint8"
        }
      ],
      "stateMutability": "view",
      "type": "function"
    },
    {
      "inputs": [
        {
          "internalType": "address",
          "name": "to",
          "type": "address"
        },
        {
          "internalType": "uint256",
          "name": "amount",
          "type": "uint256"
        }
      ],
      "name": "mint",
      "outputs": [],
      "stateMutability": "nonpayable",
      "type": "function"
    },
    {
      "inputs": [],
      "name": "name",
      "outputs": [
        {
          "internalType": "string",
          "name": "",
          "type": "string"
        }
      ],
      "stateMutability": "view",
      "type": "function"
    },
    {
      "inputs": [],
      "name": "symbol",
      "outputs": [
        {
          "internalType": "string",
          "name": "",
          "type": "string"
        }
      ],
      "stateMutability": "view",
      "type": "function"
    },
    {
      "inputs": [],
      "name": "totalSupply",
      "outputs": [
        {
          "internalType": "uint256",
          "name": "",
          "type": "uint256"
        }
      ],
      "stateMutability": "view",
      "type": "function"
    },
    {
      "inputs": [
        {
          "internalType": "address",
          "name": "to",
          "type": "address"
        },
        {
          "internalType": "uint256",
          "name": "value",
          "type": "uint256"
        }
      ],
      "name": "transfer",
      "outputs": [
        {
          "internalType": "bool",
          "name": "",
          "type": "bool"
        }
      ],
      "stateMutability": "nonpayable",
      "type": "function"
    },
    {
      "inputs": [
        {
          "internalType": "address",
          "name": "from",
          "type": "address"
        },
        {
          "internalType": "address",
          "name": "to",
          "type": "address"
        },
        {
          "internalType": "uint256",
          "name": "value",
          "type": "uint256"
        }
      ],
      "name": "transferFrom",
      "outputs": [
        {
          "internalType": "bool",
          "name": "",
          "type": "bool"
        }
      ],
      "stateMutability": "nonpayable",
      "type": "function"
    }
  ],
  "bytecode": "0x60806040523480156200001157600080fd5b506040518060400160405280600781526020017f46414b45444149000000000000000000000000000000000000000000000000008152506040518060400160405280600481526020017f464441490000000000000000000000000000000000000000000000000000000081525081600390816200008f919062000627565b508060049081620000a1919062000627565b505050620000e133620000b9620000e760201b60201c565b600a620000c791906200089e565b6000620000d59190620008ef565b620000f060201b60201c565b62000a42565b60006012905090565b600073ffffffffffffffffffffffffffffffffffffffff168273ffffffffffffffffffffffffffffffffffffffff1603620001655760006040517fec442f050000000000000000000000000000000000000000000000000000000081526004016200015c91906200097f565b60405180910390fd5b62000179600083836200017d60201b60201c565b5050565b600073ffffffffffffffffffffffffffffffffffffffff168373ffffffffffffffffffffffffffffffffffffffff1603620001d3578060026000828254620001c691906200099c565b92505081905550620002a9565b60008060008573ffffffffffffffffffffffffffffffffffffffff1673ffffffffffffffffffffffffffffffffffffffff1681526020019081526020016000205490508181101562000262578381836040517fe450d38c0000000000000000000000000000000000000000000000000000000081526004016200025993929190620009e8565b60405180910390fd5b8181036000808673ffffffffffffffffffffffffffffffffffffffff1673ffffffffffffffffffffffffffffffffffffffff16815260200190815260200160002081905550505b600073ffffffffffffffffffffffffffffffffffffffff168273ffffffffffffffffffffffffffffffffffffffff1603620002f4578060026000828254039250508190555062000341565b806000808473ffffffffffffffffffffffffffffffffffffffff1673ffffffffffffffffffffffffffffffffffffffff168152602001908152602001600020600082825401925050819055505b8173ffffffffffffffffffffffffffffffffffffffff168373ffffffffffffffffffffffffffffffffffffffff167fddf252ad1be2c89b69c2b068fc378daa952ba7f163c4a11628f55a4df523b3ef83604051620003a0919062000a25565b60405180910390a3505050565b600081519050919050565b7f4e487b7100000000000000000000000000000000000000000000000000000000600052604160045260246000fd5b7f4e487b7100000000000000000000000000000000000000000000000000000000600052602260045260246000fd5b600060028204905060018216806200042f57607f821691505b602082108103620004455762000444620003e7565b5b50919050565b60008190508160005260206000209050919050565b60006020601f8301049050919050565b600082821b905092915050565b600060088302620004af7fffffffffffffffffffffffffffffffffffffffffffffffffffffffffffffffff8262000470565b620004bb868362000470565b95508019841693508086168417925050509392505050565b6000819050919050565b6000819050919050565b60006200050862000502620004fc84620004d3565b620004dd565b620004d3565b9050919050565b6000819050919050565b6200052483620004e7565b6200053c62000533826200050f565b8484546200047d565b825550505050565b600090565b6200055362000544565b6200056081848462000519565b505050565b5b8181101562000588576200057c60008262000549565b60018101905062000566565b5050565b601f821115620005d757620005a1816200044b565b620005ac8462000460565b81016020851015620005bc578190505b620005d4620005cb8562000460565b83018262000565565b50505b505050565b600082821c905092915050565b6000620005fc60001984600802620005dc565b1980831691505092915050565b6000620006178383620005e9565b9150826002028217905092915050565b6200063282620003ad565b67ffffffffffffffff8111156200064e576200064d620003b8565b5b6200065a825462000416565b620006678282856200058c565b600060209050601f8311600181146200069f57600084156200068a578287015190505b62000696858262000609565b86555062000706565b601f198416620006af866200044b565b60005b82811015620006d957848901518255600182019150602085019450602081019050620006b2565b86831015620006f95784890151620006f5601f891682620005e9565b8355505b6001600288020188555050505b505050505050565b7f4e487b7100000000000000000000000000000000000000000000000000000000600052601160045260246000fd5b60008160011c9050919050565b6000808291508390505b60018511156200079c578086048111156200077457620007736200070e565b5b6001851615620007845780820291505b808102905062000794856200073d565b945062000754565b94509492505050565b600082620007b757600190506200088a565b81620007c757600090506200088a565b8160018114620007e05760028114620007eb5762000821565b60019150506200088a565b60ff8411156200080057620007ff6200070e565b5b8360020a9150848211156200081a57620008196200070e565b5b506200088a565b5060208310610133831016604e8410600b84101617156200085b5782820a9050838111156200085557620008546200070e565b5b6200088a565b6200086a84848460016200074a565b925090508184048111156200088457620008836200070e565b5b81810290505b9392505050565b600060ff82169050919050565b6000620008ab82620004d3565b9150620008b88362000891565b9250620008e77fffffffffffffffffffffffffffffffffffffffffffffffffffffffffffffffff8484620007a5565b905092915050565b6000620008fc82620004d3565b91506200090983620004d3565b92508282026200091981620004d3565b915082820484148315176200093357620009326200070e565b5b5092915050565b600073ffffffffffffffffffffffffffffffffffffffff82169050919050565b600062000967826200093a565b9050919050565b62000979816200095a565b82525050565b60006020820190506200099660008301846200096e565b92915050565b6000620009a982620004d3565b9150620009b683620004d3565b9250828201905080821115620009d157620009d06200070e565b5b92915050565b620009e281620004d3565b82525050565b6000606082019050620009ff60008301866200096e565b62000a0e6020830185620009d7565b62000a1d6040830184620009d7565b949350505050565b600060208201905062000a3c6000830184620009d7565b92915050565b61103d8062000a526000396000f3fe608060405234801561001057600080fd5b50600436106100b45760003560e01c806342966c681161007157806342966c681461018f57806370a08231146101ab57806379cc6790146101db57806395d89b41146101f7578063a9059cbb14610215578063dd62ed3e14610245576100b4565b806306fdde03146100b9578063095ea7b3146100d757806318160ddd1461010757806323b872dd14610125578063313ce5671461015557806340c10f1914610173575b600080fd5b6100c1610275565b6040516100ce9190610c64565b60405180910390f35b6100f160048036038101906100ec9190610d1f565b610307565b6040516100fe9190610d7a565b60405180910390f35b61010f61032a565b60405161011c9190610da4565b60405180910390f35b61013f600480360381019061013a9190610dbf565b610334565b60405161014c9190610d7a565b60405180910390f35b61015d610363565b60405161016a9190610e2e565b60405180910390f35b61018d60048036038101906101889190610d1f565b61036c565b005b6101a960048036038101906101a49190610e49565b61037a565b005b6101c560048036038101906101c09190610e76565b61038e565b6040516101d29190610da4565b60405180910390f35b6101f560048036038101906101f09190610d1f565b6103d6565b005b6101ff6103f6565b60405161020c9190610c64565b60405180910390f35b61022f600480360381019061022a9190610d1f565b610488565b60405161023c9190610d7a565b60405180910390f35b61025f600480360381019061025a9190610ea3565b6104ab565b60405161026c9190610da4565b60405180910390f35b60606003805461028490610f12565b80601f01602080910402602001604051908101604052809291908181526020018280546102b090610f12565b80156102fd5780601f106102d2576101008083540402835291602001916102fd565b820191906000526020600020905b8154815290600101906020018083116102e057829003601f168201915b5050505050905090565b600080610312610532565b905061031f81858561053a565b600191505092915050565b6000600254905090565b60008061033f610532565b905061034c85828561054c565b6103578585856105e0565b60019150509392505050565b60006012905090565b61037682826106d4565b5050565b61038b610385610532565b82610756565b50565b60008060008373ffffffffffffffffffffffffffffffffffffffff1673ffffffffffffffffffffffffffffffffffffffff168152602001908152602001600020549050919050565b6103e8826103e2610532565b8361054c565b6103f28282610756565b5050565b60606004805461040590610f12565b80601f016020809104026020016040519081016040528092919081815260200182805461043190610f12565b801561047e5780601f106104535761010080835404028352916020019161047e565b820191906000526020600020905b81548152906001019060200180831161046157829003601f168201915b5050505050905090565b600080610493610532565b90506104a08185856105e0565b600191505092915050565b6000600160008473ffffffffffffffffffffffffffffffffffffffff1673ffffffffffffffffffffffffffffffffffffffff16815260200190815260200160002060008373ffffffffffffffffffffffffffffffffffffffff1673ffffffffffffffffffffffffffffffffffffffff16815260200190815260200160002054905092915050565b600033905090565b61054783838360016107d8565b505050565b600061055884846104ab565b90507fffffffffffffffffffffffffffffffffffffffffffffffffffffffffffffffff81146105da57818110156105ca578281836040517ffb8f41b20000000000000000000000000000000000000000000000000000000081526004016105c193929190610f52565b60405180910390fd5b6105d9848484840360006107d8565b5b50505050565b600073ffffffffffffffffffffffffffffffffffffffff168373ffffffffffffffffffffffffffffffffffffffff16036106525760006040517f96c6fd1e0000000000000000000000000000000000000000000000000000000081526004016106499190610f89565b60405180910390fd5b600073ffffffffffffffffffffffffffffffffffffffff168273ffffffffffffffffffffffffffffffffffffffff16036106c45760006040517fec442f050000000000000000000000000000000000000000000000000000000081526004016106bb9190610f89565b60405180910390fd5b6106cf8383836109af565b505050565b600073ffffffffffffffffffffffffffffffffffffffff168273ffffffffffffffffffffffffffffffffffffffff16036107465760006040517fec442f0500000000000000000000000000000000000000000000000000000000815260040161073d9190610f89565b60405180910390fd5b610752600083836109af565b5050565b600073ffffffffffffffffffffffffffffffffffffffff168273ffffffffffffffffffffffffffffffffffffffff16036107c85760006040517f96c6fd1e0000000000000000000000000000000000000000000000000000000081526004016107bf9190610f89565b60405180910390fd5b6107d4826000836109af565b5050565b600073ffffffffffffffffffffffffffffffffffffffff168473ffffffffffffffffffffffffffffffffffffffff160361084a5760006040517fe602df050000000000000000000000000000000000000000000000000000000081526004016108419190610f89565b60405180910390fd5b600073ffffffffffffffffffffffffffffffffffffffff168373ffffffffffffffffffffffffffffffffffffffff16036108bc5760006040517f94280d620000000000000000000000000000000000000000000000000000000081526004016108b39190610f89565b60405180910390fd5b81600160008673ffffffffffffffffffffffffffffffffffffffff1673ffffffffffffffffffffffffffffffffffffffff16815260200190815260200160002060008573ffffffffffffffffffffffffffffffffffffffff1673ffffffffffffffffffffffffffffffffffffffff1681526020019081526020016000208190555080156109a9578273ffffffffffffffffffffffffffffffffffffffff168473ffffffffffffffffffffffffffffffffffffffff167f8c5be1e5ebec7d5bd14f71427d1e84f3dd0314c0f7b2291e5b200ac8c7c3b925846040516109a09190610da4565b60405180910390a35b50505050565b600073ffffffffffffffffffffffffffffffffffffffff168373ffffffffffffffffffffffffffffffffffffffff1603610a015780600260008282546109f59190610fd3565b92505081905550610ad4565b60008060008573ffffffffffffffffffffffffffffffffffffffff1673ffffffffffffffffffffffffffffffffffffffff16815260200190815260200160002054905081811015610a8d578381836040517fe450d38c000000000000000000000000000000000000000000000000000000008152600401610a8493929190610f52565b60405180910390fd5b8181036000808673ffffffffffffffffffffffffffffffffffffffff1673ffffffffffffffffffffffffffffffffffffffff16815260200190815260200160002081905550505b600073ffffffffffffffffffffffffffffffffffffffff168273ffffffffffffffffffffffffffffffffffffffff1603610b1d5780600260008282540392505081905550610b6a565b806000808473ffffffffffffffffffffffffffffffffffffffff1673ffffffffffffffffffffffffffffffffffffffff168152602001908152602001600020600082825401925050819055505b8173ffffffffffffffffffffffffffffffffffffffff168373ffffffffffffffffffffffffffffffffffffffff167fddf252ad1be2c89b69c2b068fc378daa952ba7f163c4a11628f55a4df523b3ef83604051610bc79190610da4565b60405180910390a3505050565b600081519050919050565b600082825260208201905092915050565b60005b83811015610c0e578082015181840152602081019050610bf3565b60008484015250505050565b6000601f19601f8301169050919050565b6000610c3682610bd4565b610c408185610bdf565b9350610c50818560208601610bf0565b610c5981610c1a565b840191505092915050565b60006020820190508181036000830152610c7e8184610c2b565b905092915050565b600080fd5b600073ffffffffffffffffffffffffffffffffffffffff82169050919050565b6000610cb682610c8b565b9050919050565b610cc681610cab565b8114610cd157600080fd5b50565b600081359050610ce381610cbd565b92915050565b6000819050919050565b610cfc81610ce9565b8114610d0757600080fd5b50565b600081359050610d1981610cf3565b92915050565b60008060408385031215610d3657610d35610c86565b5b6000610d4485828601610cd4565b9250506020610d5585828601610d0a565b9150509250929050565b60008115159050919050565b610d7481610d5f565b82525050565b6000602082019050610d8f6000830184610d6b565b92915050565b610d9e81610ce9565b82525050565b6000602082019050610db96000830184610d95565b92915050565b600080600060608486031215610dd857610dd7610c86565b5b6000610de686828701610cd4565b9350506020610df786828701610cd4565b9250506040610e0886828701610d0a565b9150509250925092565b600060ff82169050919050565b610e2881610e12565b82525050565b6000602082019050610e436000830184610e1f565b92915050565b600060208284031215610e5f57610e5e610c86565b5b6000610e6d84828501610d0a565b91505092915050565b600060208284031215610e8c57610e8b610c86565b5b6000610e9a84828501610cd4565b91505092915050565b60008060408385031215610eba57610eb9610c86565b5b6000610ec885828601610cd4565b9250506020610ed985828601610cd4565b9150509250929050565b7f4e487b7100000000000000000000000000000000000000000000000000000000600052602260045260246000fd5b60006002820490506001821680610f2a57607f821691505b602082108103610f3d57610f3c610ee3565b5b50919050565b610f4c81610cab565b82525050565b6000606082019050610f676000830186610f43565b610f746020830185610d95565b610f816040830184610d95565b949350505050565b6000602082019050610f9e6000830184610f43565b92915050565b7f4e487b7100000000000000000000000000000000000000000000000000000000600052601160045260246000fd5b6000610fde82610ce9565b9150610fe983610ce9565b925082820190508082111561100157611000610fa4565b5b9291505056fea2646970667358221220c13c4d67cd0cc7a63c39ecc1aa2ad9adab79a9ecb9e2c7526f9338044ddc5c7364736f6c63430008140033",
  "linkReferences": {},
  "deployedLinkReferences": {}
}